{"contracts/PredictionMarket.sol":{"PredictionMarket":{"abi":[{"inputs":[{"internalType":"address","name":"_usdc","type":"address"},{"internalType":"address","name":"_feeRecipient","type":"address"}],"stateMutability":"nonpayable","type":"constructor"},{"anonymous":false,"inputs":[{"indexed":true,"internalType":"uint256","name":"marketId","type":"uint256"},{"indexed":true,"internalType":"address","name":"bettor","type":"address"},{"indexed":false,"internalType":"enum PredictionMarket.Outcome","name":"outcome","type":"uint8"},{"indexed":false,"internalType":"uint256","name":"cost","type":"uint256"},{"indexed":false,"internalType":"uint256","name":"shares","type":"uint256"},{"indexed":false,"internalType":"uint256","name":"newOddsHome","type":"uint256"},{"indexed":false,"internalType":"uint256","name":"newOddsAway","type":"uint256"},{"indexed":false,"internalType":"uint256","name":"newOddsDraw","type":"uint256"}],"name":"BetPlaced","type":"event"},{"anonymous":false,"inputs":[{"indexed":true,"internalType":"address","name":"recipient","type":"address"},{"indexed":false,"internalType":"uint256","name":"amount","type":"uint256"}],"name":"FeeWithdrawn","type":"event"},{"anonymous":false,"inputs":[{"indexed":true,"internalType":"uint256","name":"marketId","type":"uint256"}],"name":"MarketCancelled","type":"event"},{"anonymous":false,"inputs":[{"indexed":true,"internalType":"uint256","name":"marketId","type":"uint256"},{"indexed":false,"internalType":"string","name":"homeTeam","type":"string"},{"indexed":false,"internalType":"string","name":"awayTeam","type":"string"},{"indexed":false,"internalType":"string","name":"league","type":"string"},{"indexed":false,"internalType":"uint256","name":"matchTimestamp","type":"uint256"},{"indexed":false,"internalType":"string","name":"externalMatchId","type":"string"}],"name":"MarketCreated","type":"event"},{"anonymous":false,"inputs":[{"indexed":true,"internalType":"uint256","name":"marketId","type":"uint256"},{"indexed":false,"internalType":"enum PredictionMarket.Outcome","name":"winner","type":"uint8"},{"indexed":false,"internalType":"uint256","name":"totalVolume","type":"uint256"}],"name":"MarketResolved","type":"event"},{"anonymous":false,"inputs":[{"indexed":true,"internalType":"address","name":"previousOwner","type":"address"},{"indexed":true,"internalType":"address","name":"newOwner","type":"address"}],"name":"OwnershipTransferred","type":"event"},{"anonymous":false,"inputs":[{"indexed":true,"internalType":"uint256","name":"marketId","type":"uint256"},{"indexed":true,"internalType":"address","name":"seller","type":"address"},{"indexed":false,"internalType":"enum PredictionMarket.Outcome","name":"outcome","type":"uint8"},{"indexed":false,"internalType":"uint256","name":"sharesSold","type":"uint256"},{"indexed":false,"internalType":"uint256","name":"proceeds","type":"uint256"},{"indexed":false,"internalType":"uint256","name":"newOddsHome","type":"uint256"},{"indexed":false,"internalType":"uint256","name":"newOddsAway","type":"uint256"},{"indexed":false,"internalType":"uint256","name":"newOddsDraw","type":"uint256"}],"name":"SharesSold","type":"event"},{"anonymous":false,"inputs":[{"indexed":true,"internalType":"uint256","name":"marketId","type":"uint256"},{"indexed":true,"internalType":"address","name":"claimant","type":"address"},{"indexed":false,"internalType":"uint256","name":"amount","type":"uint256"}],"name":"WinningsClaimed","type":"event"},{"inputs":[],"name":"BPS_DENOM","outputs":[{"internalType":"uint256","name":"","type":"uint256"}],"stateMutability":"view","type":"function"},{"inputs":[],"name":"FEE_BPS","outputs":[{"internalType":"uint256","name":"","type":"uint256"}],"stateMutability":"view","type":"function"},{"inputs":[],"name":"LMSR_B","outputs":[{"internalType":"uint256","name":"","type":"uint256"}],"stateMutability":"view","type":"function"},{"inputs":[{"internalType":"uint256","name":"marketId","type":"uint256"},{"internalType":"enum PredictionMarket.Outcome","name":"outcome","type":"uint8"},{"internalType":"uint256","name":"shares","type":"uint256"},{"internalType":"uint256","name":"maxCost","type":"uint256"}],"name":"bet","outputs":[],"stateMutability":"nonpayable","type":"function"},{"inputs":[{"internalType":"uint256","name":"marketId","type":"uint256"}],"name":"cancelMarket","outputs":[],"stateMutability":"nonpayable","type":"function"},{"inputs":[{"internalType":"uint256","name":"marketId","type":"uint256"}],"name":"claimWinnings","outputs":[],"stateMutability":"nonpayable","type":"function"},{"inputs":[{"internalType":"string","name":"homeTeam","type":"string"},{"internalType":"string","name":"awayTeam","type":"string"},{"internalType":"string","name":"league","type":"string"},{"internalType":"uint256","name":"matchTimestamp","type":"uint256"},{"internalType":"string","name":"externalMatchId","type":"string"}],"name":"createMarket","outputs":[{"internalType":"uint256","name":"marketId","type":"uint256"}],"stateMutability":"nonpayable","type":"function"},{"inputs":[],"name":"feeRecipient","outputs":[{"internalType":"address","name":"","type":"address"}],"stateMutability":"view","type":"function"},{"inputs":[],"name":"getAllMarketIds","outputs":[{"internalType":"uint256[]","name":"","type":"uint256[]"}],"stateMutability":"view","type":"function"},{"inputs":[{"internalType":"uint256","name":"marketId","type":"uint256"}],"name":"getMarket","outputs":[{"components":[{"internalType":"uint256","name":"id","type":"uint256"},{"internalType":"string","name":"homeTeam","type":"string"},{"internalType":"string","name":"awayTeam","type":"string"},{"internalType":"string","name":"league","type":"string"},{"internalType":"uint256","name":"matchTimestamp","type":"uint256"},{"internalType":"uint256","name":"closingTime","type":"uint256"},{"internalType":"bool","name":"resolved","type":"bool"},{"internalType":"bool","name":"cancelled","type":"bool"},{"internalType":"enum PredictionMarket.Outcome","name":"winner","type":"uint8"},{"internalType":"int256[3]","name":"shares","type":"int256[3]"},{"internalType":"uint256","name":"totalVolume","type":"uint256"},{"internalType":"uint256","name":"feesCollected","type":"uint256"},{"internalType":"string","name":"externalMatchId","type":"string"}],"internalType":"struct PredictionMarket.Market","name":"","type":"tuple"}],"stateMutability":"view","type":"function"},{"inputs":[],"name":"getMarketCount","outputs":[{"internalType":"uint256","name":"","type":"uint256"}],"stateMutability":"view","type":"function"},{"inputs":[{"internalType":"uint256","name":"marketId","type":"uint256"}],"name":"getOdds","outputs":[{"internalType":"uint256","name":"probHome","type":"uint256"},{"internalType":"uint256","name":"probAway","type":"uint256"},{"internalType":"uint256","name":"probDraw","type":"uint256"}],"stateMutability":"view","type":"function"},{"inputs":[{"internalType":"uint256","name":"marketId","type":"uint256"},{"internalType":"address","name":"user","type":"address"}],"name":"getPosition","outputs":[{"components":[{"internalType":"uint256","name":"sharesHome","type":"uint256"},{"internalType":"uint256","name":"sharesAway","type":"uint256"},{"internalType":"uint256","name":"sharesDraw","type":"uint256"},{"internalType":"bool","name":"claimed","type":"bool"}],"internalType":"struct PredictionMarket.Position","name":"","type":"tuple"}],"stateMutability":"view","type":"function"},{"inputs":[{"internalType":"int256[3]","name":"currentShares","type":"int256[3]"},{"internalType":"uint256","name":"outcomeIdx","type":"uint256"},{"internalType":"int256","name":"quantity","type":"int256"}],"name":"lmsrCost","outputs":[{"internalType":"uint256","name":"cost","type":"uint256"}],"stateMutability":"view","type":"function"},{"inputs":[{"internalType":"uint256","name":"","type":"uint256"}],"name":"marketIds","outputs":[{"internalType":"uint256","name":"","type":"uint256"}],"stateMutability":"view","type":"function"},{"inputs":[{"internalType":"uint256","name":"","type":"uint256"}],"name":"markets","outputs":[{"internalType":"uint256","name":"id","type":"uint256"},{"internalType":"string","name":"homeTeam","type":"string"},{"internalType":"string","name":"awayTeam","type":"string"},{"internalType":"string","name":"league","type":"string"},{"internalType":"uint256","name":"matchTimestamp","type":"uint256"},{"internalType":"uint256","name":"closingTime","type":"uint256"},{"internalType":"bool","name":"resolved","type":"bool"},{"internalType":"bool","name":"cancelled","type":"bool"},{"internalType":"enum PredictionMarket.Outcome","name":"winner","type":"uint8"},{"internalType":"uint256","name":"totalVolume","type":"uint256"},{"internalType":"uint256","name":"feesCollected","type":"uint256"},{"internalType":"string","name":"externalMatchId","type":"string"}],"stateMutability":"view","type":"function"},{"inputs":[],"name":"nextMarketId","outputs":[{"internalType":"uint256","name":"","type":"uint256"}],"stateMutability":"view","type":"function"},{"inputs":[],"name":"owner","outputs":[{"internalType":"address","name":"","type":"address"}],"stateMutability":"view","type":"function"},{"inputs":[{"internalType":"uint256","name":"","type":"uint256"},{"internalType":"address","name":"","type":"address"}],"name":"positions","outputs":[{"internalType":"uint256","name":"sharesHome","type":"uint256"},{"internalType":"uint256","name":"sharesAway","type":"uint256"},{"internalType":"uint256","name":"sharesDraw","type":"uint256"},{"internalType":"bool","name":"claimed","type":"bool"}],"stateMutability":"view","type":"function"},{"inputs":[{"internalType":"uint256","name":"marketId","type":"uint256"},{"internalType":"enum PredictionMarket.Outcome","name":"outcome","type":"uint8"},{"internalType":"uint256","name":"shares","type":"uint256"}],"name":"previewBet","outputs":[{"internalType":"uint256","name":"cost","type":"uint256"},{"internalType":"uint256","name":"fee","type":"uint256"},{"internalType":"uint256","name":"total","type":"uint256"}],"stateMutability":"view","type":"function"},{"inputs":[],"name":"renounceOwnership","outputs":[],"stateMutability":"nonpayable","type":"function"},{"inputs":[{"internalType":"uint256","name":"marketId","type":"uint256"},{"internalType":"enum PredictionMarket.Outcome","name":"winner","type":"uint8"}],"name":"resolveMarket","outputs":[],"stateMutability":"nonpayable","type":"function"},{"inputs":[{"internalType":"uint256","name":"marketId","type":"uint256"},{"internalType":"enum PredictionMarket.Outcome","name":"outcome","type":"uint8"},{"internalType":"uint256","name":"shares","type":"uint256"},{"internalType":"uint256","name":"minProceeds","type":"uint256"}],"name":"sellShares","outputs":[],"stateMutability":"nonpayable","type":"function"},{"inputs":[{"internalType":"address","name":"newRecipient","type":"address"}],"name":"setFeeRecipient","outputs":[],"stateMutability":"nonpayable","type":"function"},{"inputs":[],"name":"totalFeesEarned","outputs":[{"internalType":"uint256","name":"","type":"uint256"}],"stateMutability":"view","type":"function"},{"inputs":[{"internalType":"address","name":"newOwner","type":"address"}],"name":"transferOwnership","outputs":[],"stateMutability":"nonpayable","type":"function"},{"inputs":[],"name":"usdc","outputs":[{"internalType":"contract IERC20","name":"","type":"address"}],"stateMutability":"view","type":"function"},{"inputs":[],"name":"withdrawFees","outputs":[],"stateMutability":"nonpayable","type":"function"}],"evm":{"bytecode":{"linkReferences":{},"object":"60a0346200019b57601f62002bab38819003918201601f19168301916001600160401b03831184841017620001a05780849260409485528339810103126200019b576200005a60206200005283620001b6565b9201620001b6565b6001600081815581546001600160a01b0319808216339081179094556040519590946001600160a01b0394909385938416907f8be0079c531659141344cd1fd0a4f28419497f9722a3daafe3b4186f6b6457e09080a360016002551693841562000159575016918215620001085760805260065416176006556040516129df9081620001cc82396080518181816102e6015281816114da0152818161176a015281816119140152611a980152f35b60405162461bcd60e51b8152602060048201526024808201527f50726564696374696f6e4d61726b65743a207a65726f206665652072656369706044820152631a595b9d60e21b6064820152608490fd5b62461bcd60e51b815260206004820152601b60248201527f50726564696374696f6e4d61726b65743a207a65726f207573646300000000006044820152606490fd5b600080fd5b634e487b7160e01b600052604160045260246000fd5b51906001600160a01b03821682036200019b5756fe6080604052600436101561001257600080fd5b60003560e01c8063126c416614611ae55780631ab9550a14611ac75780633e413bee14611a82578063406ef2ef14611a645780634690484014611a3b578063476343ee146118d65780634962db64146118b75780634ede707414611829578063590528a9146116205780636637e38c14611603578063677bd9ff14611416578063715018a6146113b9578063779a9683146113825780637c16cd9e146112ac57806389c0006714610c715780638da5cb5b14610c48578063b1283e7714610b41578063b85ed63614610a8b578063bf333f2c14610a6f578063d29f541d146109b8578063df55406e14610857578063e10a482f146107f1578063e684d71814610782578063e74b981b146106f0578063eb44fdd314610487578063f2fde38b146103be578063fd69f3c2146103a05763fe9650401461015057600080fd5b3461039b5761015e36611b21565b9061016a939293611feb565b61017383612568565b600485101561038557610187851515611e23565b610192821515611e79565b60001985019085821161036f57600781016101b684846101b184611ec5565b6123d9565b9060c882029282840460c8148315171561036f5761021f6101f786600b946101f26101e96127106102489a048099611f2b565b9b8c1115611f38565b611f90565b819291549061020b8a838360031b1c611fa0565b919060031b91821b91600019901b19161790565b9055600a8101610230888254611f2b565b90550161023e828254611f2b565b9055600754611f2b565b6007558360005260046020526040600020336000526020526040600020908015600014610345575061027b828254611f2b565b90555b6040516323b872dd60e01b6020820152336024820152306044820152606480820184905281529160a083016001600160401b0381118482101761032f577f1adacc4a1e9c312cf9252edbdea295e1e908db9608b290ad030a428c646fa25a9361030a916040527f0000000000000000000000000000000000000000000000000000000000000000612041565b61032561031685612482565b91604051958695339a87611fbc565b0390a36001600055005b634e487b7160e01b600052604160045260246000fd5b6001036103615760010161035a828254611f2b565b905561027e565b60020161035a828254611f2b565b634e487b7160e01b600052601160045260246000fd5b634e487b7160e01b600052602160045260246000fd5b600080fd5b3461039b57600036600319011261039b576020600554604051908152f35b3461039b57602036600319011261039b576103d7611d78565b6103df611d8e565b6001600160a01b0390811690811561043357600154826bffffffffffffffffffffffff60a01b821617600155167f8be0079c531659141344cd1fd0a4f28419497f9722a3daafe3b4186f6b6457e0600080a3005b60405162461bcd60e51b815260206004820152602660248201527f4f776e61626c653a206e6577206f776e657220697320746865207a65726f206160448201526564647265737360d01b6064820152608490fd5b3461039b57602036600319011261039b5760606101806040516104a981611c17565b60008152826020820152826040820152828082015260006080820152600060a0820152600060c0820152600060e082015260006101008201526040516104ee81611c33565b83368237610120820152600061014082015260006101608201520152600435600052600360205260406000206040519061052782611c17565b8054825261053760018201611c6f565b602083015261054860028201611c6f565b604083015261055960038201611c6f565b606083015260048101546080830152600581015460a0830152600681015460ff8116151560c084015260ff8160081c16151560e0840152600460ff8260101c161015610385576105e09160ff600c9260101c166101008501526105be60078201611ec5565b610120850152600a810154610140850152600b81015461016085015201611c6f565b6101808201526040518091602082528051602083015261064361062d61061760208401516101e06040870152610200860190611d15565b6040840151858203601f19016060870152611d15565b6060830151848203601f19016080860152611d15565b90608081015160a084015260a081015160c084015260c0810151151560e084015260e08101511515610100840152610685610100820151610120850190611d55565b610120810151600061014085015b600382106106d6575050506101408101516101a08401526101608101516101c08401526101800151828203601f19016101e08401526106d29190611d15565b0390f35b825181528695506020928301926001929092019101610693565b3461039b57602036600319011261039b57610709611d78565b610711611d8e565b6001600160a01b0316801561073d576bffffffffffffffffffffffff60a01b6006541617600655600080f35b60405162461bcd60e51b815260206004820152601e60248201527f50726564696374696f6e4d61726b65743a207a65726f206164647265737300006044820152606490fd5b3461039b57604036600319011261039b5761079b611d62565b600435600052600460205260406000209060018060a01b03166000526020526080604060002080549060018101549060ff6003600283015492015416916040519384526020840152604083015215156060820152f35b3461039b5760a036600319011261039b57366023121561039b5760405161081781611c33565b80606436811161039b576020926004925b828410610848575061084092506084359135906123d9565b604051908152f35b83358152928401928401610828565b3461039b57604036600319011261039b57600435602435600481101561039b5761087f611d8e565b81600052600360205260406000209061089a82541515612283565b600682019081546108ae60ff8216156122da565b6108be60ff8260081c1615612331565b60048401544210610967578115610923577f661ce16e44a34377fc37c19874f4b1bec6e84b072cf8d318838fe17c20c58e44936040936001600a9362ff00008660101b169062ff00ff191617179055015461091b83518093611d55565b6020820152a2005b606460405162461bcd60e51b815260206004820152602060248201527f50726564696374696f6e4d61726b65743a20696e76616c69642077696e6e65726044820152fd5b60405162461bcd60e51b815260206004820152602360248201527f50726564696374696f6e4d61726b65743a206d61746368206e6f7420737461726044820152621d195960ea1b6064820152608490fd5b3461039b57604036600319011261039b576109d1611d62565b600060606040516109e181611bfc565b8281528260208201528260408201520152600435600052600460205260406000209060018060a01b031660005260205260806040600020604051610a2481611bfc565b815491828252600181015460208301908152606060ff600360028501549460408701958652015416930192151583526040519384525160208401525160408301525115156060820152f35b3461039b57600036600319011261039b57602060405160c88152f35b3461039b57600036600319011261039b57604051806005548083526020809301809160056000527f036b6384b5eca791c62761152d0c79bb0604c104a5fb6f4eb0703f3154bb3db09060005b86828210610b2d578686610aed82880383611c4e565b604051928392818401908285525180915260408401929160005b828110610b1657505050500390f35b835185528695509381019392810192600101610b07565b835485529093019260019283019201610ad7565b3461039b57602036600319011261039b576004356000526003602052604060002080546106d2610b7360018401611c6f565b92610b8060028201611c6f565b610b8c60038301611c6f565b91600481015492610c2e6005830154600684015490610bf9600a86015494610beb610bbe600c600b8a01549901611c6f565b98610bdd6040519e8f9e8f908152610180908160208201520190611d15565b8d810360408f015290611d15565b908b820360608d0152611d15565b9660808a015260a089015260ff8116151560c089015260ff8160081c16151560e089015260ff61010089019160101c16611d55565b610120860152610140850152838203610160850152611d15565b3461039b57600036600319011261039b576001546040516001600160a01b039091168152602090f35b3461039b5760a036600319011261039b576004356001600160401b03811161039b57610ca1903690600401611b95565b906024356001600160401b03811161039b57610cc1903690600401611b95565b6044929192356001600160401b03811161039b57610ce3903690600401611b95565b9290946084356001600160401b03811161039b57610d05903690600401611b95565b9590610d0f611d8e565b4260643511156112675760025496610d2688611de6565b60025587600052600360205260406000208881556001600160401b03851161032f57610d556001820154611bc2565b601f8111611220575b50846000601f82116001146111b2576000916111a7575b508560011b906000198760031b1c19161760018201555b6001600160401b03871161032f57610da76002820154611bc2565b601f8111611160575b50866000601f82116001146110f2576000916110e7575b508760011b906000198960031b1c19161760028201555b6001600160401b03881161032f57610df96003820154611bc2565b601f81116110a0575b50876000601f821160011461103057600091611025575b508860011b906000198a60031b1c19161760038201555b6064356004820181905561012b19810190811161036f5760058201556001600160401b03821161032f57610e67600c820154611bc2565b601f8111610fde575b50600082601f8111600114610f7157600c91600091610f66575b508360011b906000198560031b1c1916179101555b600554956801000000000000000087101561032f576020998998610f37610f5b96610f45948c610f10610ef98e7fc57500193187a5fd2b78d41186c264ddbf85abc40dc877b5f8732f2636fe93319f600101600555611b48565b819391549060031b91821b91600019901b19161790565b9055610f296040519b8c9b60a08d5260a08d0191611e02565b918a830360208c0152611e02565b918783036040890152611e02565b9160643560608601528483036080860152611e02565b0390a2604051908152f35b90508401358c610e8a565b50600c820160005260206000209060005b601f1985168110610fc6575083601f19811610610fac575b5050600c600183811b01910155610e9f565b840135600019600385901b60f8161c191690558a80610f9a565b90916020600181928589013581550193019101610f82565b600c82016000526020600020601f840160051c81016020851061101e575b601f830160051c82018110611012575050610e70565b60008155600101610ffc565b5080610ffc565b90508a01358b610e19565b90506003820160005260206000209060005b8c601f198c16821061108857505089601f1981161061106e575b5050600188811b016003820155610e30565b8b013560001960038b901b60f8161c191690558a8061105c565b60018394602093948493013581550193019101611042565b600382016000526020600020601f8a0160051c810160208b106110e0575b601f830160051c820181106110d4575050610e02565b600081556001016110be565b50806110be565b90508401358b610dc7565b90506002820160005260206000209060005b601f198a168110611148575088601f1981161061112e575b5050600187811b016002820155610dde565b85013560001960038a901b60f8161c191690558a8061111c565b9091602060018192858a013581550193019101611104565b600282016000526020600020601f890160051c810160208a106111a0575b601f830160051c82018110611194575050610db0565b6000815560010161117e565b508061117e565b90508601358b610d75565b90506001820160005260206000209060005b601f1988168110611208575086601f198116106111ee575b5050600185811b016001820155610d8c565b870135600019600388901b60f8161c191690558a806111dc565b9091602060018192858c0135815501930191016111c4565b600182016000526020600020601f870160051c810160208810611260575b601f830160051c82018110611254575050610d5e565b6000815560010161123e565b508061123e565b60405162461bcd60e51b815260206004820152601f60248201527f50726564696374696f6e4d61726b65743a206d6174636820696e2070617374006044820152606490fd5b3461039b57602036600319011261039b576004356112c8611d8e565b806000526003602052600660406000206112e481541515612283565b0180546112f460ff8216156122da565b60ff8160081c166113315761ff0019166101001790557f2ca440fb7fca85d7f55d395a4abd94817330b83a62f3502efbb4770144e4ca97600080a2005b60405162461bcd60e51b815260206004820152602360248201527f50726564696374696f6e4d61726b65743a20616c72656164792063616e63656c6044820152621b195960ea1b6064820152608490fd5b3461039b57602036600319011261039b5760043560055481101561039b576113ab602091611b48565b90546040519160031b1c8152f35b3461039b57600036600319011261039b576113d2611d8e565b600180546001600160a01b031981169091556000906001600160a01b03167f8be0079c531659141344cd1fd0a4f28419497f9722a3daafe3b4186f6b6457e08280a3005b3461039b5760208060031936011261039b57600435611433611feb565b8060005260038252604060002061144c81541515612283565b60068101805460ff81169081156115f5575b50156115b0578260005260048452604060002033600052845260406000209060038201805460ff81166115615760ff191660011790555460081c60ff1615611552576114a991612913565b915b821561150e577f5380cf6fe903b40c6d5a9e0dfbca2f3a423f0a21520b4d5947ed5169bdba946d906114fe84337f0000000000000000000000000000000000000000000000000000000000000000612245565b6040519384523393a36001600055005b6064906040519062461bcd60e51b82526004820152601d60248201527f50726564696374696f6e4d61726b65743a206e6f2077696e6e696e67730000006044820152fd5b61155b9161287d565b916114ab565b60405162461bcd60e51b815260048101889052602160248201527f50726564696374696f6e4d61726b65743a20616c726561647920636c61696d656044820152601960fa1b6064820152608490fd5b60405162461bcd60e51b815260048101859052601d60248201527f50726564696374696f6e4d61726b65743a206e6f7420736574746c65640000006044820152606490fd5b60ff915060081c168561145e565b3461039b57600036600319011261039b5760206040516127108152f35b3461039b5761162e36611b21565b611639939293611feb565b61164283612568565b91600485101561038557611657851515611e23565b611662811515611e79565b600019850185811161036f5784600052600460205260406000203360005260205260406000209080158060001461180b578383545b106117b857600786016116b66116ac86612234565b846101b184611ec5565b9060c8820282810460c8148315171561036f576116e9916101f26116e06127108894048096611df5565b998a1015611f38565b8192915498898260031b1c938885039460008a1281871281169187139015161761036f5761023061174c95600b947f8fdddc588076c398f58592a85002b527737ead18984b402d0bafb16a07ac96cd9d9060031b91821b91600019901b19161790565b6007551561178e5750611760828254611df5565b90555b61030a82337f0000000000000000000000000000000000000000000000000000000000000000612245565b6001036117aa576001016117a3828254611df5565b9055611763565b6002016117a3828254611df5565b60405162461bcd60e51b815260206004820152602560248201527f50726564696374696f6e4d61726b65743a20696e73756666696369656e742073604482015264686172657360d81b6064820152608490fd5b6001820361181e57836001840154611697565b836002840154611697565b3461039b57606036600319011261039b57602435600481101561039b5760043560005260036020526040600020600019820191821161036f57611875916101b160076044359301611ec5565b60c8810281810460c8148215171561036f576127109004906106d261189a8383611f2b565b604051938493846040919493926060820195825260208201520152565b3461039b57600036600319011261039b5760206040516305f5e1008152f35b3461039b57600036600319011261039b576006546001600160a01b0390811690338290036119ea576040516370a0823160e01b8152306004820152917f0000000000000000000000000000000000000000000000000000000000000000906020846024818686165afa9384156119de576000946119a7575b50916119916020927f78473f3f373f7673597f4f0fa5873cb4d375fea6d4339ad6b56dbd411513cb3f9460075496600060075580881160001461199f5791612245565b6006541692604051908152a2005b508691612245565b929093506020833d82116119d6575b816119c360209383611c4e565b8101031261039b5791519261199161194e565b3d91506119b6565b6040513d6000823e3d90fd5b60405162461bcd60e51b815260206004820152602360248201527f50726564696374696f6e4d61726b65743a206e6f742066656520726563697069604482015262195b9d60ea1b6064820152608490fd5b3461039b57600036600319011261039b576006546040516001600160a01b039091168152602090f35b3461039b57600036600319011261039b576020600254604051908152f35b3461039b57600036600319011261039b576040517f00000000000000000000000000000000000000000000000000000000000000006001600160a01b03168152602090f35b3461039b57600036600319011261039b576020600754604051908152f35b3461039b57602036600319011261039b576106d2611b04600435612482565b604080519384526020840192909252908201529081906060820190565b608090600319011261039b5760043590602435600481101561039b57906044359060643590565b600554811015611b7f5760056000527f036b6384b5eca791c62761152d0c79bb0604c104a5fb6f4eb0703f3154bb3db00190600090565b634e487b7160e01b600052603260045260246000fd5b9181601f8401121561039b578235916001600160401b03831161039b576020838186019501011161039b57565b90600182811c92168015611bf2575b6020831014611bdc57565b634e487b7160e01b600052602260045260246000fd5b91607f1691611bd1565b608081019081106001600160401b0382111761032f57604052565b6101a081019081106001600160401b0382111761032f57604052565b606081019081106001600160401b0382111761032f57604052565b90601f801991011681019081106001600160401b0382111761032f57604052565b9060405191826000825492611c8384611bc2565b908184526001948581169081600014611cf25750600114611caf575b5050611cad92500383611c4e565b565b9093915060005260209081600020936000915b818310611cda575050611cad93508201013880611c9f565b85548884018501529485019487945091830191611cc2565b915050611cad94506020925060ff191682840152151560051b8201013880611c9f565b919082519283825260005b848110611d41575050826000602080949584010152601f8019910116010190565b602081830181015184830182015201611d20565b9060048210156103855752565b602435906001600160a01b038216820361039b57565b600435906001600160a01b038216820361039b57565b6001546001600160a01b03163303611da257565b606460405162461bcd60e51b815260206004820152602060248201527f4f776e61626c653a2063616c6c6572206973206e6f7420746865206f776e65726044820152fd5b600019811461036f5760010190565b9190820391821161036f57565b908060209392818452848401376000828201840152601f01601f1916010190565b15611e2a57565b60405162461bcd60e51b815260206004820152602160248201527f50726564696374696f6e4d61726b65743a20696e76616c6964206f7574636f6d6044820152606560f81b6064820152608490fd5b15611e8057565b60405162461bcd60e51b815260206004820152601d60248201527f50726564696374696f6e4d61726b65743a207a65726f207368617265730000006044820152606490fd5b60405191906000835b60038210611ee257505050611cad82611c33565b6001602081928554815201930191019091611ece565b8181029291811591840414171561036f57565b8115611f15570490565b634e487b7160e01b600052601260045260246000fd5b9190820180921161036f57565b15611f3f57565b60405162461bcd60e51b815260206004820152602360248201527f50726564696374696f6e4d61726b65743a20736c69707061676520657863656560448201526219195960ea1b6064820152608490fd5b6003821015611b7f570190600090565b9190916000838201938412911290801582169115161761036f57565b9260a0949197969592611fd38560c081019a611d55565b60208501526040840152606083015260808201520152565b600260005414611ffc576002600055565b60405162461bcd60e51b815260206004820152601f60248201527f5265656e7472616e637947756172643a207265656e7472616e742063616c6c006044820152606490fd5b60018060a01b031690604051604081016001600160401b03908281108282111761032f576040526020938483527f5361666545524332303a206c6f772d6c6576656c2063616c6c206661696c6564858401526000808587829751910182855af1903d1561218c573d92831161217857906120db939291604051926120ce88601f19601f8401160185611c4e565b83523d868885013e612197565b80519182159184831561214d575b5050509050156120f65750565b6084906040519062461bcd60e51b82526004820152602a60248201527f5361666545524332303a204552433230206f7065726174696f6e20646964206e6044820152691bdd081cdd58d8d9595960b21b6064820152fd5b919381809450010312612174578201519081151582036121715750803880846120e9565b80fd5b5080fd5b634e487b7160e01b85526041600452602485fd5b906120db9392506060915b919290156121f957508151156121ab575090565b3b156121b45790565b60405162461bcd60e51b815260206004820152601d60248201527f416464726573733a2063616c6c20746f206e6f6e2d636f6e74726163740000006044820152606490fd5b82519091501561220c5750805190602001fd5b60405162461bcd60e51b815260206004820152908190612230906024830190611d15565b0390fd5b600160ff1b811461036f5760000390565b60405163a9059cbb60e01b60208201526001600160a01b039092166024830152604480830193909352918152611cad9161227e82611bfc565b612041565b1561228a57565b60405162461bcd60e51b815260206004820152602260248201527f50726564696374696f6e4d61726b65743a206d61726b6574206e6f7420666f756044820152611b9960f21b6064820152608490fd5b156122e157565b60405162461bcd60e51b815260206004820152602260248201527f50726564696374696f6e4d61726b65743a20616c7265616479207265736f6c76604482015261195960f21b6064820152608490fd5b1561233857565b60405162461bcd60e51b815260206004820152601b60248201527f50726564696374696f6e4d61726b65743a2063616e63656c6c656400000000006044820152606490fd5b906003811015611b7f5760051b0190565b1561239557565b606460405162461bcd60e51b815260206004820152602060248201527f50726564696374696f6e4d61726b65743a204c4d535220756e646572666c6f776044820152fd5b919061245261244c600092604051906123f182611c33565b865182526020870180516020840152604088019081516040850152604051986124198a611c33565b51895251602089015251604088015261244661243f87612439848b61237d565b51611fa0565b918861237d565b526125f4565b936125f4565b91131561247257908161246a8261246f94101561238e565b611df5565b90565b8161246a8261246f94101561238e565b60009081526003602052604081209161249e600784015461264d565b916124b960096124b1600887015461264d565b95015461264d565b926124cd846124c88784611f2b565b611f2b565b91821561255457620f4240918281029080820484149015171561254057836124f491611f0b565b9582810290808204841490151715612540578361251091611f0b565b9482810292818404149015171561252c57509061246f91611f0b565b634e487b7160e01b81526011600452602490fd5b634e487b7160e01b82526011600452602482fd5b505050915050620516159081906205161690565b600052600360205260406000209061258282541515612283565b6125a260ff6006840154612598828216156122da565b60081c1615612331565b60058201544210156125b057565b606460405162461bcd60e51b815260206004820152602060248201527f50726564696374696f6e4d61726b65743a2062657474696e6720636c6f7365646044820152fd5b61262961262e916124c8612608825161264d565b91612623604061261b602084015161264d565b92015161264d565b92611f2b565b6126ab565b6305f5e100908082029182040361036f57670de0b6b3a7640000900490565b670de0b6b3a76400009081810291818305149015171561036f576305f5e10061246f9105678ac7230489e800008082136126a3575b50678ac7230489e7ffff1980821261269b575b50612796565b905038612695565b905038612682565b8015612790576000905b671bc16d674ec8000081101561277d575b670de0b6b3a7640000811061275957670de0b6b3a763ffff19810190811161036f57806729a2241af62c000061272f612715671bc16d674ec8000061270e8561273697611ef8565b0484611df5565b92670de0b6b3a76400006127298280611ef8565b04611ef8565b0490611f2b565b67099e8db03256ce5d9182810292818404149015171561036f5761246f91611f2b565b8060011b908082046002149015171561036f5790801561036f5760001901906126c6565b61278a9060011c91611de6565b906126b5565b50600090565b801561287057600080821291821561286a576127b190612234565b915b670de0b6b3a764000092600190845b600c831115612805575050506127d6575090565b81156127f157506ec097ce7bc90715b34b9f10000000000490565b634e487b7160e01b81526012600452602490fd5b8161281291969396611ef8565b670de0b6b3a7640000860290868204670de0b6b3a76400001487151715612856576128436128509261284a92611f0b565b8094611f2b565b95611de6565b916127c2565b634e487b7160e01b86526011600452602486fd5b916127b3565b50670de0b6b3a764000090565b60ff600682015460101c1691600483101561038557600019830192831161036f57826128f75754915b82156128ef576128b99060078301611f90565b90549060031b1c9060008213156128ef5761246f926128e582600b600a6128ea95015491015490611df5565b611ef8565b611f0b565b505050600090565b600183036129095760010154916128a6565b60020154916128a6565b90612959612943600784015460008082136000146129a257505b600885015460008082131561299a575090611fa0565b600984015460008082131561299a575090611fa0565b9081156128ef5761246f926128e56129898360026129806128ea9654600184015490611f2b565b91015490611f2b565b91600b600a82015491015490611df5565b905090611fa0565b905061292d56fea26469706673582212208ef49a5ba66f2ca1e2e1475a462287a9741e93aba94c1e6042589d9f950c609c64736f6c63430008140033","opcodes":"PUSH1 0xA0 CALLVALUE PUSH3 0x19B JUMPI PUSH1 0x1F PUSH3 0x2BAB CODESIZE DUP2 SWAP1 SUB SWAP2 DUP3 ADD PUSH1 0x1F NOT AND DUP4 ADD SWAP2 PUSH1 0x1 PUSH1 0x1 PUSH1 0x40 SHL SUB DUP4 GT DUP5 DUP5 LT OR PUSH3 0x1A0 JUMPI DUP1 DUP5 SWAP3 PUSH1 0x40 SWAP5 DUP6 MSTORE DUP4 CODECOPY DUP2 ADD SUB SLT PUSH3 0x19B JUMPI PUSH3 0x5A PUSH1 0x20 PUSH3 0x52 DUP4 PUSH3 0x1B6 JUMP JUMPDEST SWAP3 ADD PUSH3 0x1B6 JUMP JUMPDEST PUSH1 0x1 PUSH1 0x0 DUP2 DUP2 SSTORE DUP2 SLOAD PUSH1 0x1 PUSH1 0x1 PUSH1 0xA0 SHL SUB NOT DUP1 DUP3 AND CALLER SWAP1 DUP2 OR SWAP1 SWAP5 SSTORE PUSH1 0x40 MLOAD SWAP6 SWAP1 SWAP5 PUSH1 0x1 PUSH1 0x1 PUSH1 0xA0 SHL SUB SWAP5 SWAP1 SWAP4 DUP6 SWAP4 DUP5 AND SWAP1 PUSH32 0x8BE0079C531659141344CD1FD0A4F28419497F9722A3DAAFE3B4186F6B6457E0 SWAP1 DUP1 LOG3 PUSH1 0x1 PUSH1 0x2 SSTORE AND SWAP4 DUP5 ISZERO PUSH3 0x159 JUMPI POP AND SWAP2 DUP3 ISZERO PUSH3 0x108 JUMPI PUSH1 0x80 MSTORE PUSH1 0x6 SLOAD AND OR PUSH1 0x6 SSTORE PUSH1 0x40 MLOAD PUSH2 0x29DF SWAP1 DUP2 PUSH3 0x1CC DUP3 CODECOPY PUSH1 0x80 MLOAD DUP2 DUP2 DUP2 PUSH2 0x2E6 ADD MSTORE DUP2 DUP2 PUSH2 0x14DA ADD MSTORE DUP2 DUP2 PUSH2 0x176A ADD MSTORE DUP2 DUP2 PUSH2 0x1914 ADD MSTORE PUSH2 0x1A98 ADD MSTORE RETURN JUMPDEST PUSH1 0x40 MLOAD PUSH3 0x461BCD PUSH1 0xE5 SHL DUP2 MSTORE PUSH1 0x20 PUSH1 0x4 DUP3 ADD MSTORE PUSH1 0x24 DUP1 DUP3 ADD MSTORE PUSH32 0x50726564696374696F6E4D61726B65743A207A65726F20666565207265636970 PUSH1 0x44 DUP3 ADD MSTORE PUSH4 0x1A595B9D PUSH1 0xE2 SHL PUSH1 0x64 DUP3 ADD MSTORE PUSH1 0x84 SWAP1 REVERT JUMPDEST PUSH3 0x461BCD PUSH1 0xE5 SHL DUP2 MSTORE PUSH1 0x20 PUSH1 0x4 DUP3 ADD MSTORE PUSH1 0x1B PUSH1 0x24 DUP3 ADD MSTORE PUSH32 0x50726564696374696F6E4D61726B65743A207A65726F20757364630000000000 PUSH1 0x44 DUP3 ADD MSTORE PUSH1 0x64 SWAP1 REVERT JUMPDEST PUSH1 0x0 DUP1 REVERT JUMPDEST PUSH4 0x4E487B71 PUSH1 0xE0 SHL PUSH1 0x0 MSTORE PUSH1 0x41 PUSH1 0x4 MSTORE PUSH1 0x24 PUSH1 0x0 REVERT JUMPDEST MLOAD SWAP1 PUSH1 0x1 PUSH1 0x1 PUSH1 0xA0 SHL SUB DUP3 AND DUP3 SUB PUSH3 0x19B JUMPI JUMP INVALID PUSH1 0x80 PUSH1 0x40 MSTORE PUSH1 0x4 CALLDATASIZE LT ISZERO PUSH2 0x12 JUMPI PUSH1 0x0 DUP1 REVERT JUMPDEST PUSH1 0x0 CALLDATALOAD PUSH1 0xE0 SHR DUP1 PUSH4 0x126C4166 EQ PUSH2 0x1AE5 JUMPI DUP1 PUSH4 0x1AB9550A EQ PUSH2 0x1AC7 JUMPI DUP1 PUSH4 0x3E413BEE EQ PUSH2 0x1A82 JUMPI DUP1 PUSH4 0x406EF2EF EQ PUSH2 0x1A64 JUMPI DUP1 PUSH4 0x46904840 EQ PUSH2 0x1A3B JUMPI DUP1 PUSH4 0x476343EE EQ PUSH2 0x18D6 JUMPI DUP1 PUSH4 0x4962DB64 EQ PUSH2 0x18B7 JUMPI DUP1 PUSH4 0x4EDE7074 EQ PUSH2 0x1829 JUMPI DUP1 PUSH4 0x590528A9 EQ PUSH2 0x1620 JUMPI DUP1 PUSH4 0x6637E38C EQ PUSH2 0x1603 JUMPI DUP1 PUSH4 0x677BD9FF EQ PUSH2 0x1416 JUMPI DUP1 PUSH4 0x715018A6 EQ PUSH2 0x13B9 JUMPI DUP1 PUSH4 0x779A9683 EQ PUSH2 0x1382 JUMPI DUP1 PUSH4 0x7C16CD9E EQ PUSH2 0x12AC JUMPI DUP1 PUSH4 0x89C00067 EQ PUSH2 0xC71 JUMPI DUP1 PUSH4 0x8DA5CB5B EQ PUSH2 0xC48 JUMPI DUP1 PUSH4 0xB1283E77 EQ PUSH2 0xB41 JUMPI DUP1 PUSH4 0xB85ED636 EQ PUSH2 0xA8B JUMPI DUP1 PUSH4 0xBF333F2C EQ PUSH2 0xA6F JUMPI DUP1 PUSH4 0xD29F541D EQ PUSH2 0x9B8 JUMPI DUP1 PUSH4 0xDF55406E EQ PUSH2 0x857 JUMPI DUP1 PUSH4 0xE10A482F EQ PUSH2 0x7F1 JUMPI DUP1 PUSH4 0xE684D718 EQ PUSH2 0x782 JUMPI DUP1 PUSH4 0xE74B981B EQ PUSH2 0x6F0 JUMPI DUP1 PUSH4 0xEB44FDD3 EQ PUSH2 0x487 JUMPI DUP1 PUSH4 0xF2FDE38B EQ PUSH2 0x3BE JUMPI DUP1 PUSH4 0xFD69F3C2 EQ PUSH2 0x3A0 JUMPI PUSH4 0xFE965040 EQ PUSH2 0x150 JUMPI PUSH1 0x0 DUP1 REVERT JUMPDEST CALLVALUE PUSH2 0x39B JUMPI PUSH2 0x15E CALLDATASIZE PUSH2 0x1B21 JUMP JUMPDEST SWAP1 PUSH2 0x16A SWAP4 SWAP3 SWAP4 PUSH2 0x1FEB JUMP JUMPDEST PUSH2 0x173 DUP4 PUSH2 0x2568 JUMP JUMPDEST PUSH1 0x4 DUP6 LT ISZERO PUSH2 0x385 JUMPI PUSH2 0x187 DUP6 ISZERO ISZERO PUSH2 0x1E23 JUMP JUMPDEST PUSH2 0x192 DUP3 ISZERO ISZERO PUSH2 0x1E79 JUMP JUMPDEST PUSH1 0x0 NOT DUP6 ADD SWAP1 DUP6 DUP3 GT PUSH2 0x36F JUMPI PUSH1 0x7 DUP2 ADD PUSH2 0x1B6 DUP5 DUP5 PUSH2 0x1B1 DUP5 PUSH2 0x1EC5 JUMP JUMPDEST PUSH2 0x23D9 JUMP JUMPDEST SWAP1 PUSH1 0xC8 DUP3 MUL SWAP3 DUP3 DUP5 DIV PUSH1 0xC8 EQ DUP4 ISZERO OR ISZERO PUSH2 0x36F JUMPI PUSH2 0x21F PUSH2 0x1F7 DUP7 PUSH1 0xB SWAP5 PUSH2 0x1F2 PUSH2 0x1E9 PUSH2 0x2710 PUSH2 0x248 SWAP11 DIV DUP1 SWAP10 PUSH2 0x1F2B JUMP JUMPDEST SWAP12 DUP13 GT ISZERO PUSH2 0x1F38 JUMP JUMPDEST PUSH2 0x1F90 JUMP JUMPDEST DUP2 SWAP3 SWAP2 SLOAD SWAP1 PUSH2 0x20B DUP11 DUP4 DUP4 PUSH1 0x3 SHL SHR PUSH2 0x1FA0 JUMP JUMPDEST SWAP2 SWAP1 PUSH1 0x3 SHL SWAP2 DUP3 SHL SWAP2 PUSH1 0x0 NOT SWAP1 SHL NOT AND OR SWAP1 JUMP JUMPDEST SWAP1 SSTORE PUSH1 0xA DUP2 ADD PUSH2 0x230 DUP9 DUP3 SLOAD PUSH2 0x1F2B JUMP JUMPDEST SWAP1 SSTORE ADD PUSH2 0x23E DUP3 DUP3 SLOAD PUSH2 0x1F2B JUMP JUMPDEST SWAP1 SSTORE PUSH1 0x7 SLOAD PUSH2 0x1F2B JUMP JUMPDEST PUSH1 0x7 SSTORE DUP4 PUSH1 0x0 MSTORE PUSH1 0x4 PUSH1 0x20 MSTORE PUSH1 0x40 PUSH1 0x0 KECCAK256 CALLER PUSH1 0x0 MSTORE PUSH1 0x20 MSTORE PUSH1 0x40 PUSH1 0x0 KECCAK256 SWAP1 DUP1 ISZERO PUSH1 0x0 EQ PUSH2 0x345 JUMPI POP PUSH2 0x27B DUP3 DUP3 SLOAD PUSH2 0x1F2B JUMP JUMPDEST SWAP1 SSTORE JUMPDEST PUSH1 0x40 MLOAD PUSH4 0x23B872DD PUSH1 0xE0 SHL PUSH1 0x20 DUP3 ADD MSTORE CALLER PUSH1 0x24 DUP3 ADD MSTORE ADDRESS PUSH1 0x44 DUP3 ADD MSTORE PUSH1 0x64 DUP1 DUP3 ADD DUP5 SWAP1 MSTORE DUP2 MSTORE SWAP2 PUSH1 0xA0 DUP4 ADD PUSH1 0x1 PUSH1 0x1 PUSH1 0x40 SHL SUB DUP2 GT DUP5 DUP3 LT OR PUSH2 0x32F JUMPI PUSH32 0x1ADACC4A1E9C312CF9252EDBDEA295E1E908DB9608B290AD030A428C646FA25A SWAP4 PUSH2 0x30A SWAP2 PUSH1 0x40 MSTORE PUSH32 0x0 PUSH2 0x2041 JUMP JUMPDEST PUSH2 0x325 PUSH2 0x316 DUP6 PUSH2 0x2482 JUMP JUMPDEST SWAP2 PUSH1 0x40 MLOAD SWAP6 DUP7 SWAP6 CALLER SWAP11 DUP8 PUSH2 0x1FBC JUMP JUMPDEST SUB SWAP1 LOG3 PUSH1 0x1 PUSH1 0x0 SSTORE STOP JUMPDEST PUSH4 0x4E487B71 PUSH1 0xE0 SHL PUSH1 0x0 MSTORE PUSH1 0x41 PUSH1 0x4 MSTORE PUSH1 0x24 PUSH1 0x0 REVERT JUMPDEST PUSH1 0x1 SUB PUSH2 0x361 JUMPI PUSH1 0x1 ADD PUSH2 0x35A DUP3 DUP3 SLOAD PUSH2 0x1F2B JUMP JUMPDEST SWAP1 SSTORE PUSH2 0x27E JUMP JUMPDEST PUSH1 0x2 ADD PUSH2 0x35A DUP3 DUP3 SLOAD PUSH2 0x1F2B JUMP JUMPDEST PUSH4 0x4E487B71 PUSH1 0xE0 SHL PUSH1 0x0 MSTORE PUSH1 0x11 PUSH1 0x4 MSTORE PUSH1 0x24 PUSH1 0x0 REVERT JUMPDEST PUSH4 0x4E487B71 PUSH1 0xE0 SHL PUSH1 0x0 MSTORE PUSH1 0x21 PUSH1 0x4 MSTORE PUSH1 0x24 PUSH1 0x0 REVERT JUMPDEST PUSH1 0x0 DUP1 REVERT JUMPDEST CALLVALUE PUSH2 0x39B JUMPI PUSH1 0x0 CALLDATASIZE PUSH1 0x3 NOT ADD SLT PUSH2 0x39B JUMPI PUSH1 0x20 PUSH1 0x5 SLOAD PUSH1 0x40 MLOAD SWAP1 DUP2 MSTORE RETURN JUMPDEST CALLVALUE PUSH2 0x39B JUMPI PUSH1 0x20 CALLDATASIZE PUSH1 0x3 NOT ADD SLT PUSH2 0x39B JUMPI PUSH2 0x3D7 PUSH2 0x1D78 JUMP JUMPDEST PUSH2 0x3DF PUSH2 0x1D8E JUMP JUMPDEST PUSH1 0x1 PUSH1 0x1 PUSH1 0xA0 SHL SUB SWAP1 DUP2 AND SWAP1 DUP2 ISZERO PUSH2 0x433 JUMPI PUSH1 0x1 SLOAD DUP3 PUSH12 0xFFFFFFFFFFFFFFFFFFFFFFFF PUSH1 0xA0 SHL DUP3 AND OR PUSH1 0x1 SSTORE AND PUSH32 0x8BE0079C531659141344CD1FD0A4F28419497F9722A3DAAFE3B4186F6B6457E0 PUSH1 0x0 DUP1 LOG3 STOP JUMPDEST PUSH1 0x40 MLOAD PUSH3 0x461BCD PUSH1 0xE5 SHL DUP2 MSTORE PUSH1 0x20 PUSH1 0x4 DUP3 ADD MSTORE PUSH1 0x26 PUSH1 0x24 DUP3 ADD MSTORE PUSH32 0x4F776E61626C653A206E6577206F776E657220697320746865207A65726F2061 PUSH1 0x44 DUP3 ADD MSTORE PUSH6 0x646472657373 PUSH1 0xD0 SHL PUSH1 0x64 DUP3 ADD MSTORE PUSH1 0x84 SWAP1 REVERT JUMPDEST CALLVALUE PUSH2 0x39B JUMPI PUSH1 0x20 CALLDATASIZE PUSH1 0x3 NOT ADD SLT PUSH2 0x39B JUMPI PUSH1 0x60 PUSH2 0x180 PUSH1 0x40 MLOAD PUSH2 0x4A9 DUP2 PUSH2 0x1C17 JUMP JUMPDEST PUSH1 0x0 DUP2 MSTORE DUP3 PUSH1 0x20 DUP3 ADD MSTORE DUP3 PUSH1 0x40 DUP3 ADD MSTORE DUP3 DUP1 DUP3 ADD MSTORE PUSH1 0x0 PUSH1 0x80 DUP3 ADD MSTORE PUSH1 0x0 PUSH1 0xA0 DUP3 ADD MSTORE PUSH1 0x0 PUSH1 0xC0 DUP3 ADD MSTORE PUSH1 0x0 PUSH1 0xE0 DUP3 ADD MSTORE PUSH1 0x0 PUSH2 0x100 DUP3 ADD MSTORE PUSH1 0x40 MLOAD PUSH2 0x4EE DUP2 PUSH2 0x1C33 JUMP JUMPDEST DUP4 CALLDATASIZE DUP3 CALLDATACOPY PUSH2 0x120 DUP3 ADD MSTORE PUSH1 0x0 PUSH2 0x140 DUP3 ADD MSTORE PUSH1 0x0 PUSH2 0x160 DUP3 ADD MSTORE ADD MSTORE PUSH1 0x4 CALLDATALOAD PUSH1 0x0 MSTORE PUSH1 0x3 PUSH1 0x20 MSTORE PUSH1 0x40 PUSH1 0x0 KECCAK256 PUSH1 0x40 MLOAD SWAP1 PUSH2 0x527 DUP3 PUSH2 0x1C17 JUMP JUMPDEST DUP1 SLOAD DUP3 MSTORE PUSH2 0x537 PUSH1 0x1 DUP3 ADD PUSH2 0x1C6F JUMP JUMPDEST PUSH1 0x20 DUP4 ADD MSTORE PUSH2 0x548 PUSH1 0x2 DUP3 ADD PUSH2 0x1C6F JUMP JUMPDEST PUSH1 0x40 DUP4 ADD MSTORE PUSH2 0x559 PUSH1 0x3 DUP3 ADD PUSH2 0x1C6F JUMP JUMPDEST PUSH1 0x60 DUP4 ADD MSTORE PUSH1 0x4 DUP2 ADD SLOAD PUSH1 0x80 DUP4 ADD MSTORE PUSH1 0x5 DUP2 ADD SLOAD PUSH1 0xA0 DUP4 ADD MSTORE PUSH1 0x6 DUP2 ADD SLOAD PUSH1 0xFF DUP2 AND ISZERO ISZERO PUSH1 0xC0 DUP5 ADD MSTORE PUSH1 0xFF DUP2 PUSH1 0x8 SHR AND ISZERO ISZERO PUSH1 0xE0 DUP5 ADD MSTORE PUSH1 0x4 PUSH1 0xFF DUP3 PUSH1 0x10 SHR AND LT ISZERO PUSH2 0x385 JUMPI PUSH2 0x5E0 SWAP2 PUSH1 0xFF PUSH1 0xC SWAP3 PUSH1 0x10 SHR AND PUSH2 0x100 DUP6 ADD MSTORE PUSH2 0x5BE PUSH1 0x7 DUP3 ADD PUSH2 0x1EC5 JUMP JUMPDEST PUSH2 0x120 DUP6 ADD MSTORE PUSH1 0xA DUP2 ADD SLOAD PUSH2 0x140 DUP6 ADD MSTORE PUSH1 0xB DUP2 ADD SLOAD PUSH2 0x160 DUP6 ADD MSTORE ADD PUSH2 0x1C6F JUMP JUMPDEST PUSH2 0x180 DUP3 ADD MSTORE PUSH1 0x40 MLOAD DUP1 SWAP2 PUSH1 0x20 DUP3 MSTORE DUP1 MLOAD PUSH1 0x20 DUP4 ADD MSTORE PUSH2 0x643 PUSH2 0x62D PUSH2 0x617 PUSH1 0x20 DUP5 ADD MLOAD PUSH2 0x1E0 PUSH1 0x40 DUP8 ADD MSTORE PUSH2 0x200 DUP7 ADD SWAP1 PUSH2 0x1D15 JUMP JUMPDEST PUSH1 0x40 DUP5 ADD MLOAD DUP6 DUP3 SUB PUSH1 0x1F NOT ADD PUSH1 0x60 DUP8 ADD MSTORE PUSH2 0x1D15 JUMP JUMPDEST PUSH1 0x60 DUP4 ADD MLOAD DUP5 DUP3 SUB PUSH1 0x1F NOT ADD PUSH1 0x80 DUP7 ADD MSTORE PUSH2 0x1D15 JUMP JUMPDEST SWAP1 PUSH1 0x80 DUP2 ADD MLOAD PUSH1 0xA0 DUP5 ADD MSTORE PUSH1 0xA0 DUP2 ADD MLOAD PUSH1 0xC0 DUP5 ADD MSTORE PUSH1 0xC0 DUP2 ADD MLOAD ISZERO ISZERO PUSH1 0xE0 DUP5 ADD MSTORE PUSH1 0xE0 DUP2 ADD MLOAD ISZERO ISZERO PUSH2 0x100 DUP5 ADD MSTORE PUSH2 0x685 PUSH2 0x100 DUP3 ADD MLOAD PUSH2 0x120 DUP6 ADD SWAP1 PUSH2 0x1D55 JUMP JUMPDEST PUSH2 0x120 DUP2 ADD MLOAD PUSH1 0x0 PUSH2 0x140 DUP6 ADD JUMPDEST PUSH1 0x3 DUP3 LT PUSH2 0x6D6 JUMPI POP POP POP PUSH2 0x140 DUP2 ADD MLOAD PUSH2 0x1A0 DUP5 ADD MSTORE PUSH2 0x160 DUP2 ADD MLOAD PUSH2 0x1C0 DUP5 ADD MSTORE PUSH2 0x180 ADD MLOAD DUP3 DUP3 SUB PUSH1 0x1F NOT ADD PUSH2 0x1E0 DUP5 ADD MSTORE PUSH2 0x6D2 SWAP2 SWAP1 PUSH2 0x1D15 JUMP JUMPDEST SUB SWAP1 RETURN JUMPDEST DUP3 MLOAD DUP2 MSTORE DUP7 SWAP6 POP PUSH1 0x20 SWAP3 DUP4 ADD SWAP3 PUSH1 0x1 SWAP3 SWAP1 SWAP3 ADD SWAP2 ADD PUSH2 0x693 JUMP JUMPDEST CALLVALUE PUSH2 0x39B JUMPI PUSH1 0x20 CALLDATASIZE PUSH1 0x3 NOT ADD SLT PUSH2 0x39B JUMPI PUSH2 0x709 PUSH2 0x1D78 JUMP JUMPDEST PUSH2 0x711 PUSH2 0x1D8E JUMP JUMPDEST PUSH1 0x1 PUSH1 0x1 PUSH1 0xA0 SHL SUB AND DUP1 ISZERO PUSH2 0x73D JUMPI PUSH12 0xFFFFFFFFFFFFFFFFFFFFFFFF PUSH1 0xA0 SHL PUSH1 0x6 SLOAD AND OR PUSH1 0x6 SSTORE PUSH1 0x0 DUP1 RETURN JUMPDEST PUSH1 0x40 MLOAD PUSH3 0x461BCD PUSH1 0xE5 SHL DUP2 MSTORE PUSH1 0x20 PUSH1 0x4 DUP3 ADD MSTORE PUSH1 0x1E PUSH1 0x24 DUP3 ADD MSTORE PUSH32 0x50726564696374696F6E4D61726B65743A207A65726F20616464726573730000 PUSH1 0x44 DUP3 ADD MSTORE PUSH1 0x64 SWAP1 REVERT JUMPDEST CALLVALUE PUSH2 0x39B JUMPI PUSH1 0x40 CALLDATASIZE PUSH1 0x3 NOT ADD SLT PUSH2 0x39B JUMPI PUSH2 0x79B PUSH2 0x1D62 JUMP JUMPDEST PUSH1 0x4 CALLDATALOAD PUSH1 0x0 MSTORE PUSH1 0x4 PUSH1 0x20 MSTORE PUSH1 0x40 PUSH1 0x0 KECCAK256 SWAP1 PUSH1 0x1 DUP1 PUSH1 0xA0 SHL SUB AND PUSH1 0x0 MSTORE PUSH1 0x20 MSTORE PUSH1 0x80 PUSH1 0x40 PUSH1 0x0 KECCAK256 DUP1 SLOAD SWAP1 PUSH1 0x1 DUP2 ADD SLOAD SWAP1 PUSH1 0xFF PUSH1 0x3 PUSH1 0x2 DUP4 ADD SLOAD SWAP3 ADD SLOAD AND SWAP2 PUSH1 0x40 MLOAD SWAP4 DUP5 MSTORE PUSH1 0x20 DUP5 ADD MSTORE PUSH1 0x40 DUP4 ADD MSTORE ISZERO ISZERO PUSH1 0x60 DUP3 ADD MSTORE RETURN JUMPDEST CALLVALUE PUSH2 0x39B JUMPI PUSH1 0xA0 CALLDATASIZE PUSH1 0x3 NOT ADD SLT PUSH2 0x39B JUMPI CALLDATASIZE PUSH1 0x23 SLT ISZERO PUSH2 0x39B JUMPI PUSH1 0x40 MLOAD PUSH2 0x817 DUP2 PUSH2 0x1C33 JUMP JUMPDEST DUP1 PUSH1 0x64 CALLDATASIZE DUP2 GT PUSH2 0x39B JUMPI PUSH1 0x20 SWAP3 PUSH1 0x4 SWAP3 JUMPDEST DUP3 DUP5 LT PUSH2 0x848 JUMPI POP PUSH2 0x840 SWAP3 POP PUSH1 0x84 CALLDATALOAD SWAP2 CALLDATALOAD SWAP1 PUSH2 0x23D9 JUMP JUMPDEST PUSH1 0x40 MLOAD SWAP1 DUP2 MSTORE RETURN JUMPDEST DUP4 CALLDATALOAD DUP2 MSTORE SWAP3 DUP5 ADD SWAP3 DUP5 ADD PUSH2 0x828 JUMP JUMPDEST CALLVALUE PUSH2 0x39B JUMPI PUSH1 0x40 CALLDATASIZE PUSH1 0x3 NOT ADD SLT PUSH2 0x39B JUMPI PUSH1 0x4 CALLDATALOAD PUSH1 0x24 CALLDATALOAD PUSH1 0x4 DUP2 LT ISZERO PUSH2 0x39B JUMPI PUSH2 0x87F PUSH2 0x1D8E JUMP JUMPDEST DUP2 PUSH1 0x0 MSTORE PUSH1 0x3 PUSH1 0x20 MSTORE PUSH1 0x40 PUSH1 0x0 KECCAK256 SWAP1 PUSH2 0x89A DUP3 SLOAD ISZERO ISZERO PUSH2 0x2283 JUMP JUMPDEST PUSH1 0x6 DUP3 ADD SWAP1 DUP2 SLOAD PUSH2 0x8AE PUSH1 0xFF DUP3 AND ISZERO PUSH2 0x22DA JUMP JUMPDEST PUSH2 0x8BE PUSH1 0xFF DUP3 PUSH1 0x8 SHR AND ISZERO PUSH2 0x2331 JUMP JUMPDEST PUSH1 0x4 DUP5 ADD SLOAD TIMESTAMP LT PUSH2 0x967 JUMPI DUP2 ISZERO PUSH2 0x923 JUMPI PUSH32 0x661CE16E44A34377FC37C19874F4B1BEC6E84B072CF8D318838FE17C20C58E44 SWAP4 PUSH1 0x40 SWAP4 PUSH1 0x1 PUSH1 0xA SWAP4 PUSH3 0xFF0000 DUP7 PUSH1 0x10 SHL AND SWAP1 PUSH3 0xFF00FF NOT AND OR OR SWAP1 SSTORE ADD SLOAD PUSH2 0x91B DUP4 MLOAD DUP1 SWAP4 PUSH2 0x1D55 JUMP JUMPDEST PUSH1 0x20 DUP3 ADD MSTORE LOG2 STOP JUMPDEST PUSH1 0x64 PUSH1 0x40 MLOAD PUSH3 0x461BCD PUSH1 0xE5 SHL DUP2 MSTORE PUSH1 0x20 PUSH1 0x4 DUP3 ADD MSTORE PUSH1 0x20 PUSH1 0x24 DUP3 ADD MSTORE PUSH32 0x50726564696374696F6E4D61726B65743A20696E76616C69642077696E6E6572 PUSH1 0x44 DUP3 ADD MSTORE REVERT JUMPDEST PUSH1 0x40 MLOAD PUSH3 0x461BCD PUSH1 0xE5 SHL DUP2 MSTORE PUSH1 0x20 PUSH1 0x4 DUP3 ADD MSTORE PUSH1 0x23 PUSH1 0x24 DUP3 ADD MSTORE PUSH32 0x50726564696374696F6E4D61726B65743A206D61746368206E6F742073746172 PUSH1 0x44 DUP3 ADD MSTORE PUSH3 0x1D1959 PUSH1 0xEA SHL PUSH1 0x64 DUP3 ADD MSTORE PUSH1 0x84 SWAP1 REVERT JUMPDEST CALLVALUE PUSH2 0x39B JUMPI PUSH1 0x40 CALLDATASIZE PUSH1 0x3 NOT ADD SLT PUSH2 0x39B JUMPI PUSH2 0x9D1 PUSH2 0x1D62 JUMP JUMPDEST PUSH1 0x0 PUSH1 0x60 PUSH1 0x40 MLOAD PUSH2 0x9E1 DUP2 PUSH2 0x1BFC JUMP JUMPDEST DUP3 DUP2 MSTORE DUP3 PUSH1 0x20 DUP3 ADD MSTORE DUP3 PUSH1 0x40 DUP3 ADD MSTORE ADD MSTORE PUSH1 0x4 CALLDATALOAD PUSH1 0x0 MSTORE PUSH1 0x4 PUSH1 0x20 MSTORE PUSH1 0x40 PUSH1 0x0 KECCAK256 SWAP1 PUSH1 0x1 DUP1 PUSH1 0xA0 SHL SUB AND PUSH1 0x0 MSTORE PUSH1 0x20 MSTORE PUSH1 0x80 PUSH1 0x40 PUSH1 0x0 KECCAK256 PUSH1 0x40 MLOAD PUSH2 0xA24 DUP2 PUSH2 0x1BFC JUMP JUMPDEST DUP2 SLOAD SWAP2 DUP3 DUP3 MSTORE PUSH1 0x1 DUP2 ADD SLOAD PUSH1 0x20 DUP4 ADD SWAP1 DUP2 MSTORE PUSH1 0x60 PUSH1 0xFF PUSH1 0x3 PUSH1 0x2 DUP6 ADD SLOAD SWAP5 PUSH1 0x40 DUP8 ADD SWAP6 DUP7 MSTORE ADD SLOAD AND SWAP4 ADD SWAP3 ISZERO ISZERO DUP4 MSTORE PUSH1 0x40 MLOAD SWAP4 DUP5 MSTORE MLOAD PUSH1 0x20 DUP5 ADD MSTORE MLOAD PUSH1 0x40 DUP4 ADD MSTORE MLOAD ISZERO ISZERO PUSH1 0x60 DUP3 ADD MSTORE RETURN JUMPDEST CALLVALUE PUSH2 0x39B JUMPI PUSH1 0x0 CALLDATASIZE PUSH1 0x3 NOT ADD SLT PUSH2 0x39B JUMPI PUSH1 0x20 PUSH1 0x40 MLOAD PUSH1 0xC8 DUP2 MSTORE RETURN JUMPDEST CALLVALUE PUSH2 0x39B JUMPI PUSH1 0x0 CALLDATASIZE PUSH1 0x3 NOT ADD SLT PUSH2 0x39B JUMPI PUSH1 0x40 MLOAD DUP1 PUSH1 0x5 SLOAD DUP1 DUP4 MSTORE PUSH1 0x20 DUP1 SWAP4 ADD DUP1 SWAP2 PUSH1 0x5 PUSH1 0x0 MSTORE PUSH32 0x36B6384B5ECA791C62761152D0C79BB0604C104A5FB6F4EB0703F3154BB3DB0 SWAP1 PUSH1 0x0 JUMPDEST DUP7 DUP3 DUP3 LT PUSH2 0xB2D JUMPI DUP7 DUP7 PUSH2 0xAED DUP3 DUP9 SUB DUP4 PUSH2 0x1C4E JUMP JUMPDEST PUSH1 0x40 MLOAD SWAP3 DUP4 SWAP3 DUP2 DUP5 ADD SWAP1 DUP3 DUP6 MSTORE MLOAD DUP1 SWAP2 MSTORE PUSH1 0x40 DUP5 ADD SWAP3 SWAP2 PUSH1 0x0 JUMPDEST DUP3 DUP2 LT PUSH2 0xB16 JUMPI POP POP POP POP SUB SWAP1 RETURN JUMPDEST DUP4 MLOAD DUP6 MSTORE DUP7 SWAP6 POP SWAP4 DUP2 ADD SWAP4 SWAP3 DUP2 ADD SWAP3 PUSH1 0x1 ADD PUSH2 0xB07 JUMP JUMPDEST DUP4 SLOAD DUP6 MSTORE SWAP1 SWAP4 ADD SWAP3 PUSH1 0x1 SWAP3 DUP4 ADD SWAP3 ADD PUSH2 0xAD7 JUMP JUMPDEST CALLVALUE PUSH2 0x39B JUMPI PUSH1 0x20 CALLDATASIZE PUSH1 0x3 NOT ADD SLT PUSH2 0x39B JUMPI PUSH1 0x4 CALLDATALOAD PUSH1 0x0 MSTORE PUSH1 0x3 PUSH1 0x20 MSTORE PUSH1 0x40 PUSH1 0x0 KECCAK256 DUP1 SLOAD PUSH2 0x6D2 PUSH2 0xB73 PUSH1 0x1 DUP5 ADD PUSH2 0x1C6F JUMP JUMPDEST SWAP3 PUSH2 0xB80 PUSH1 0x2 DUP3 ADD PUSH2 0x1C6F JUMP JUMPDEST PUSH2 0xB8C PUSH1 0x3 DUP4 ADD PUSH2 0x1C6F JUMP JUMPDEST SWAP2 PUSH1 0x4 DUP2 ADD SLOAD SWAP3 PUSH2 0xC2E PUSH1 0x5 DUP4 ADD SLOAD PUSH1 0x6 DUP5 ADD SLOAD SWAP1 PUSH2 0xBF9 PUSH1 0xA DUP7 ADD SLOAD SWAP5 PUSH2 0xBEB PUSH2 0xBBE PUSH1 0xC PUSH1 0xB DUP11 ADD SLOAD SWAP10 ADD PUSH2 0x1C6F JUMP JUMPDEST SWAP9 PUSH2 0xBDD PUSH1 0x40 MLOAD SWAP15 DUP16 SWAP15 DUP16 SWAP1 DUP2 MSTORE PUSH2 0x180 SWAP1 DUP2 PUSH1 0x20 DUP3 ADD MSTORE ADD SWAP1 PUSH2 0x1D15 JUMP JUMPDEST DUP14 DUP2 SUB PUSH1 0x40 DUP16 ADD MSTORE SWAP1 PUSH2 0x1D15 JUMP JUMPDEST SWAP1 DUP12 DUP3 SUB PUSH1 0x60 DUP14 ADD MSTORE PUSH2 0x1D15 JUMP JUMPDEST SWAP7 PUSH1 0x80 DUP11 ADD MSTORE PUSH1 0xA0 DUP10 ADD MSTORE PUSH1 0xFF DUP2 AND ISZERO ISZERO PUSH1 0xC0 DUP10 ADD MSTORE PUSH1 0xFF DUP2 PUSH1 0x8 SHR AND ISZERO ISZERO PUSH1 0xE0 DUP10 ADD MSTORE PUSH1 0xFF PUSH2 0x100 DUP10 ADD SWAP2 PUSH1 0x10 SHR AND PUSH2 0x1D55 JUMP JUMPDEST PUSH2 0x120 DUP7 ADD MSTORE PUSH2 0x140 DUP6 ADD MSTORE DUP4 DUP3 SUB PUSH2 0x160 DUP6 ADD MSTORE PUSH2 0x1D15 JUMP JUMPDEST CALLVALUE PUSH2 0x39B JUMPI PUSH1 0x0 CALLDATASIZE PUSH1 0x3 NOT ADD SLT PUSH2 0x39B JUMPI PUSH1 0x1 SLOAD PUSH1 0x40 MLOAD PUSH1 0x1 PUSH1 0x1 PUSH1 0xA0 SHL SUB SWAP1 SWAP2 AND DUP2 MSTORE PUSH1 0x20 SWAP1 RETURN JUMPDEST CALLVALUE PUSH2 0x39B JUMPI PUSH1 0xA0 CALLDATASIZE PUSH1 0x3 NOT ADD SLT PUSH2 0x39B JUMPI PUSH1 0x4 CALLDATALOAD PUSH1 0x1 PUSH1 0x1 PUSH1 0x40 SHL SUB DUP2 GT PUSH2 0x39B JUMPI PUSH2 0xCA1 SWAP1 CALLDATASIZE SWAP1 PUSH1 0x4 ADD PUSH2 0x1B95 JUMP JUMPDEST SWAP1 PUSH1 0x24 CALLDATALOAD PUSH1 0x1 PUSH1 0x1 PUSH1 0x40 SHL SUB DUP2 GT PUSH2 0x39B JUMPI PUSH2 0xCC1 SWAP1 CALLDATASIZE SWAP1 PUSH1 0x4 ADD PUSH2 0x1B95 JUMP JUMPDEST PUSH1 0x44 SWAP3 SWAP2 SWAP3 CALLDATALOAD PUSH1 0x1 PUSH1 0x1 PUSH1 0x40 SHL SUB DUP2 GT PUSH2 0x39B JUMPI PUSH2 0xCE3 SWAP1 CALLDATASIZE SWAP1 PUSH1 0x4 ADD PUSH2 0x1B95 JUMP JUMPDEST SWAP3 SWAP1 SWAP5 PUSH1 0x84 CALLDATALOAD PUSH1 0x1 PUSH1 0x1 PUSH1 0x40 SHL SUB DUP2 GT PUSH2 0x39B JUMPI PUSH2 0xD05 SWAP1 CALLDATASIZE SWAP1 PUSH1 0x4 ADD PUSH2 0x1B95 JUMP JUMPDEST SWAP6 SWAP1 PUSH2 0xD0F PUSH2 0x1D8E JUMP JUMPDEST TIMESTAMP PUSH1 0x64 CALLDATALOAD GT ISZERO PUSH2 0x1267 JUMPI PUSH1 0x2 SLOAD SWAP7 PUSH2 0xD26 DUP9 PUSH2 0x1DE6 JUMP JUMPDEST PUSH1 0x2 SSTORE DUP8 PUSH1 0x0 MSTORE PUSH1 0x3 PUSH1 0x20 MSTORE PUSH1 0x40 PUSH1 0x0 KECCAK256 DUP9 DUP2 SSTORE PUSH1 0x1 PUSH1 0x1 PUSH1 0x40 SHL SUB DUP6 GT PUSH2 0x32F JUMPI PUSH2 0xD55 PUSH1 0x1 DUP3 ADD SLOAD PUSH2 0x1BC2 JUMP JUMPDEST PUSH1 0x1F DUP2 GT PUSH2 0x1220 JUMPI JUMPDEST POP DUP5 PUSH1 0x0 PUSH1 0x1F DUP3 GT PUSH1 0x1 EQ PUSH2 0x11B2 JUMPI PUSH1 0x0 SWAP2 PUSH2 0x11A7 JUMPI JUMPDEST POP DUP6 PUSH1 0x1 SHL SWAP1 PUSH1 0x0 NOT DUP8 PUSH1 0x3 SHL SHR NOT AND OR PUSH1 0x1 DUP3 ADD SSTORE JUMPDEST PUSH1 0x1 PUSH1 0x1 PUSH1 0x40 SHL SUB DUP8 GT PUSH2 0x32F JUMPI PUSH2 0xDA7 PUSH1 0x2 DUP3 ADD SLOAD PUSH2 0x1BC2 JUMP JUMPDEST PUSH1 0x1F DUP2 GT PUSH2 0x1160 JUMPI JUMPDEST POP DUP7 PUSH1 0x0 PUSH1 0x1F DUP3 GT PUSH1 0x1 EQ PUSH2 0x10F2 JUMPI PUSH1 0x0 SWAP2 PUSH2 0x10E7 JUMPI JUMPDEST POP DUP8 PUSH1 0x1 SHL SWAP1 PUSH1 0x0 NOT DUP10 PUSH1 0x3 SHL SHR NOT AND OR PUSH1 0x2 DUP3 ADD SSTORE JUMPDEST PUSH1 0x1 PUSH1 0x1 PUSH1 0x40 SHL SUB DUP9 GT PUSH2 0x32F JUMPI PUSH2 0xDF9 PUSH1 0x3 DUP3 ADD SLOAD PUSH2 0x1BC2 JUMP JUMPDEST PUSH1 0x1F DUP2 GT PUSH2 0x10A0 JUMPI JUMPDEST POP DUP8 PUSH1 0x0 PUSH1 0x1F DUP3 GT PUSH1 0x1 EQ PUSH2 0x1030 JUMPI PUSH1 0x0 SWAP2 PUSH2 0x1025 JUMPI JUMPDEST POP DUP9 PUSH1 0x1 SHL SWAP1 PUSH1 0x0 NOT DUP11 PUSH1 0x3 SHL SHR NOT AND OR PUSH1 0x3 DUP3 ADD SSTORE JUMPDEST PUSH1 0x64 CALLDATALOAD PUSH1 0x4 DUP3 ADD DUP2 SWAP1 SSTORE PUSH2 0x12B NOT DUP2 ADD SWAP1 DUP2 GT PUSH2 0x36F JUMPI PUSH1 0x5 DUP3 ADD SSTORE PUSH1 0x1 PUSH1 0x1 PUSH1 0x40 SHL SUB DUP3 GT PUSH2 0x32F JUMPI PUSH2 0xE67 PUSH1 0xC DUP3 ADD SLOAD PUSH2 0x1BC2 JUMP JUMPDEST PUSH1 0x1F DUP2 GT PUSH2 0xFDE JUMPI JUMPDEST POP PUSH1 0x0 DUP3 PUSH1 0x1F DUP2 GT PUSH1 0x1 EQ PUSH2 0xF71 JUMPI PUSH1 0xC SWAP2 PUSH1 0x0 SWAP2 PUSH2 0xF66 JUMPI JUMPDEST POP DUP4 PUSH1 0x1 SHL SWAP1 PUSH1 0x0 NOT DUP6 PUSH1 0x3 SHL SHR NOT AND OR SWAP2 ADD SSTORE JUMPDEST PUSH1 0x5 SLOAD SWAP6 PUSH9 0x10000000000000000 DUP8 LT ISZERO PUSH2 0x32F JUMPI PUSH1 0x20 SWAP10 DUP10 SWAP9 PUSH2 0xF37 PUSH2 0xF5B SWAP7 PUSH2 0xF45 SWAP5 DUP13 PUSH2 0xF10 PUSH2 0xEF9 DUP15 PUSH32 0xC57500193187A5FD2B78D41186C264DDBF85ABC40DC877B5F8732F2636FE9331 SWAP16 PUSH1 0x1 ADD PUSH1 0x5 SSTORE PUSH2 0x1B48 JUMP JUMPDEST DUP2 SWAP4 SWAP2 SLOAD SWAP1 PUSH1 0x3 SHL SWAP2 DUP3 SHL SWAP2 PUSH1 0x0 NOT SWAP1 SHL NOT AND OR SWAP1 JUMP JUMPDEST SWAP1 SSTORE PUSH2 0xF29 PUSH1 0x40 MLOAD SWAP12 DUP13 SWAP12 PUSH1 0xA0 DUP14 MSTORE PUSH1 0xA0 DUP14 ADD SWAP2 PUSH2 0x1E02 JUMP JUMPDEST SWAP2 DUP11 DUP4 SUB PUSH1 0x20 DUP13 ADD MSTORE PUSH2 0x1E02 JUMP JUMPDEST SWAP2 DUP8 DUP4 SUB PUSH1 0x40 DUP10 ADD MSTORE PUSH2 0x1E02 JUMP JUMPDEST SWAP2 PUSH1 0x64 CALLDATALOAD PUSH1 0x60 DUP7 ADD MSTORE DUP5 DUP4 SUB PUSH1 0x80 DUP7 ADD MSTORE PUSH2 0x1E02 JUMP JUMPDEST SUB SWAP1 LOG2 PUSH1 0x40 MLOAD SWAP1 DUP2 MSTORE RETURN JUMPDEST SWAP1 POP DUP5 ADD CALLDATALOAD DUP13 PUSH2 0xE8A JUMP JUMPDEST POP PUSH1 0xC DUP3 ADD PUSH1 0x0 MSTORE PUSH1 0x20 PUSH1 0x0 KECCAK256 SWAP1 PUSH1 0x0 JUMPDEST PUSH1 0x1F NOT DUP6 AND DUP2 LT PUSH2 0xFC6 JUMPI POP DUP4 PUSH1 0x1F NOT DUP2 AND LT PUSH2 0xFAC JUMPI JUMPDEST POP POP PUSH1 0xC PUSH1 0x1 DUP4 DUP2 SHL ADD SWAP2 ADD SSTORE PUSH2 0xE9F JUMP JUMPDEST DUP5 ADD CALLDATALOAD PUSH1 0x0 NOT PUSH1 0x3 DUP6 SWAP1 SHL PUSH1 0xF8 AND SHR NOT AND SWAP1 SSTORE DUP11 DUP1 PUSH2 0xF9A JUMP JUMPDEST SWAP1 SWAP2 PUSH1 0x20 PUSH1 0x1 DUP2 SWAP3 DUP6 DUP10 ADD CALLDATALOAD DUP2 SSTORE ADD SWAP4 ADD SWAP2 ADD PUSH2 0xF82 JUMP JUMPDEST PUSH1 0xC DUP3 ADD PUSH1 0x0 MSTORE PUSH1 0x20 PUSH1 0x0 KECCAK256 PUSH1 0x1F DUP5 ADD PUSH1 0x5 SHR DUP2 ADD PUSH1 0x20 DUP6 LT PUSH2 0x101E JUMPI JUMPDEST PUSH1 0x1F DUP4 ADD PUSH1 0x5 SHR DUP3 ADD DUP2 LT PUSH2 0x1012 JUMPI POP POP PUSH2 0xE70 JUMP JUMPDEST PUSH1 0x0 DUP2 SSTORE PUSH1 0x1 ADD PUSH2 0xFFC JUMP JUMPDEST POP DUP1 PUSH2 0xFFC JUMP JUMPDEST SWAP1 POP DUP11 ADD CALLDATALOAD DUP12 PUSH2 0xE19 JUMP JUMPDEST SWAP1 POP PUSH1 0x3 DUP3 ADD PUSH1 0x0 MSTORE PUSH1 0x20 PUSH1 0x0 KECCAK256 SWAP1 PUSH1 0x0 JUMPDEST DUP13 PUSH1 0x1F NOT DUP13 AND DUP3 LT PUSH2 0x1088 JUMPI POP POP DUP10 PUSH1 0x1F NOT DUP2 AND LT PUSH2 0x106E JUMPI JUMPDEST POP POP PUSH1 0x1 DUP9 DUP2 SHL ADD PUSH1 0x3 DUP3 ADD SSTORE PUSH2 0xE30 JUMP JUMPDEST DUP12 ADD CALLDATALOAD PUSH1 0x0 NOT PUSH1 0x3 DUP12 SWAP1 SHL PUSH1 0xF8 AND SHR NOT AND SWAP1 SSTORE DUP11 DUP1 PUSH2 0x105C JUMP JUMPDEST PUSH1 0x1 DUP4 SWAP5 PUSH1 0x20 SWAP4 SWAP5 DUP5 SWAP4 ADD CALLDATALOAD DUP2 SSTORE ADD SWAP4 ADD SWAP2 ADD PUSH2 0x1042 JUMP JUMPDEST PUSH1 0x3 DUP3 ADD PUSH1 0x0 MSTORE PUSH1 0x20 PUSH1 0x0 KECCAK256 PUSH1 0x1F DUP11 ADD PUSH1 0x5 SHR DUP2 ADD PUSH1 0x20 DUP12 LT PUSH2 0x10E0 JUMPI JUMPDEST PUSH1 0x1F DUP4 ADD PUSH1 0x5 SHR DUP3 ADD DUP2 LT PUSH2 0x10D4 JUMPI POP POP PUSH2 0xE02 JUMP JUMPDEST PUSH1 0x0 DUP2 SSTORE PUSH1 0x1 ADD PUSH2 0x10BE JUMP JUMPDEST POP DUP1 PUSH2 0x10BE JUMP JUMPDEST SWAP1 POP DUP5 ADD CALLDATALOAD DUP12 PUSH2 0xDC7 JUMP JUMPDEST SWAP1 POP PUSH1 0x2 DUP3 ADD PUSH1 0x0 MSTORE PUSH1 0x20 PUSH1 0x0 KECCAK256 SWAP1 PUSH1 0x0 JUMPDEST PUSH1 0x1F NOT DUP11 AND DUP2 LT PUSH2 0x1148 JUMPI POP DUP9 PUSH1 0x1F NOT DUP2 AND LT PUSH2 0x112E JUMPI JUMPDEST POP POP PUSH1 0x1 DUP8 DUP2 SHL ADD PUSH1 0x2 DUP3 ADD SSTORE PUSH2 0xDDE JUMP JUMPDEST DUP6 ADD CALLDATALOAD PUSH1 0x0 NOT PUSH1 0x3 DUP11 SWAP1 SHL PUSH1 0xF8 AND SHR NOT AND SWAP1 SSTORE DUP11 DUP1 PUSH2 0x111C JUMP JUMPDEST SWAP1 SWAP2 PUSH1 0x20 PUSH1 0x1 DUP2 SWAP3 DUP6 DUP11 ADD CALLDATALOAD DUP2 SSTORE ADD SWAP4 ADD SWAP2 ADD PUSH2 0x1104 JUMP JUMPDEST PUSH1 0x2 DUP3 ADD PUSH1 0x0 MSTORE PUSH1 0x20 PUSH1 0x0 KECCAK256 PUSH1 0x1F DUP10 ADD PUSH1 0x5 SHR DUP2 ADD PUSH1 0x20 DUP11 LT PUSH2 0x11A0 JUMPI JUMPDEST PUSH1 0x1F DUP4 ADD PUSH1 0x5 SHR DUP3 ADD DUP2 LT PUSH2 0x1194 JUMPI POP POP PUSH2 0xDB0 JUMP JUMPDEST PUSH1 0x0 DUP2 SSTORE PUSH1 0x1 ADD PUSH2 0x117E JUMP JUMPDEST POP DUP1 PUSH2 0x117E JUMP JUMPDEST SWAP1 POP DUP7 ADD CALLDATALOAD DUP12 PUSH2 0xD75 JUMP JUMPDEST SWAP1 POP PUSH1 0x1 DUP3 ADD PUSH1 0x0 MSTORE PUSH1 0x20 PUSH1 0x0 KECCAK256 SWAP1 PUSH1 0x0 JUMPDEST PUSH1 0x1F NOT DUP9 AND DUP2 LT PUSH2 0x1208 JUMPI POP DUP7 PUSH1 0x1F NOT DUP2 AND LT PUSH2 0x11EE JUMPI JUMPDEST POP POP PUSH1 0x1 DUP6 DUP2 SHL ADD PUSH1 0x1 DUP3 ADD SSTORE PUSH2 0xD8C JUMP JUMPDEST DUP8 ADD CALLDATALOAD PUSH1 0x0 NOT PUSH1 0x3 DUP9 SWAP1 SHL PUSH1 0xF8 AND SHR NOT AND SWAP1 SSTORE DUP11 DUP1 PUSH2 0x11DC JUMP JUMPDEST SWAP1 SWAP2 PUSH1 0x20 PUSH1 0x1 DUP2 SWAP3 DUP6 DUP13 ADD CALLDATALOAD DUP2 SSTORE ADD SWAP4 ADD SWAP2 ADD PUSH2 0x11C4 JUMP JUMPDEST PUSH1 0x1 DUP3 ADD PUSH1 0x0 MSTORE PUSH1 0x20 PUSH1 0x0 KECCAK256 PUSH1 0x1F DUP8 ADD PUSH1 0x5 SHR DUP2 ADD PUSH1 0x20 DUP9 LT PUSH2 0x1260 JUMPI JUMPDEST PUSH1 0x1F DUP4 ADD PUSH1 0x5 SHR DUP3 ADD DUP2 LT PUSH2 0x1254 JUMPI POP POP PUSH2 0xD5E JUMP JUMPDEST PUSH1 0x0 DUP2 SSTORE PUSH1 0x1 ADD PUSH2 0x123E JUMP JUMPDEST POP DUP1 PUSH2 0x123E JUMP JUMPDEST PUSH1 0x40 MLOAD PUSH3 0x461BCD PUSH1 0xE5 SHL DUP2 MSTORE PUSH1 0x20 PUSH1 0x4 DUP3 ADD MSTORE PUSH1 0x1F PUSH1 0x24 DUP3 ADD MSTORE PUSH32 0x50726564696374696F6E4D61726B65743A206D6174636820696E207061737400 PUSH1 0x44 DUP3 ADD MSTORE PUSH1 0x64 SWAP1 REVERT JUMPDEST CALLVALUE PUSH2 0x39B JUMPI PUSH1 0x20 CALLDATASIZE PUSH1 0x3 NOT ADD SLT PUSH2 0x39B JUMPI PUSH1 0x4 CALLDATALOAD PUSH2 0x12C8 PUSH2 0x1D8E JUMP JUMPDEST DUP1 PUSH1 0x0 MSTORE PUSH1 0x3 PUSH1 0x20 MSTORE PUSH1 0x6 PUSH1 0x40 PUSH1 0x0 KECCAK256 PUSH2 0x12E4 DUP2 SLOAD ISZERO ISZERO PUSH2 0x2283 JUMP JUMPDEST ADD DUP1 SLOAD PUSH2 0x12F4 PUSH1 0xFF DUP3 AND ISZERO PUSH2 0x22DA JUMP JUMPDEST PUSH1 0xFF DUP2 PUSH1 0x8 SHR AND PUSH2 0x1331 JUMPI PUSH2 0xFF00 NOT AND PUSH2 0x100 OR SWAP1 SSTORE PUSH32 0x2CA440FB7FCA85D7F55D395A4ABD94817330B83A62F3502EFBB4770144E4CA97 PUSH1 0x0 DUP1 LOG2 STOP JUMPDEST PUSH1 0x40 MLOAD PUSH3 0x461BCD PUSH1 0xE5 SHL DUP2 MSTORE PUSH1 0x20 PUSH1 0x4 DUP3 ADD MSTORE PUSH1 0x23 PUSH1 0x24 DUP3 ADD MSTORE PUSH32 0x50726564696374696F6E4D61726B65743A20616C72656164792063616E63656C PUSH1 0x44 DUP3 ADD MSTORE PUSH3 0x1B1959 PUSH1 0xEA SHL PUSH1 0x64 DUP3 ADD MSTORE PUSH1 0x84 SWAP1 REVERT JUMPDEST CALLVALUE PUSH2 0x39B JUMPI PUSH1 0x20 CALLDATASIZE PUSH1 0x3 NOT ADD SLT PUSH2 0x39B JUMPI PUSH1 0x4 CALLDATALOAD PUSH1 0x5 SLOAD DUP2 LT ISZERO PUSH2 0x39B JUMPI PUSH2 0x13AB PUSH1 0x20 SWAP2 PUSH2 0x1B48 JUMP JUMPDEST SWAP1 SLOAD PUSH1 0x40 MLOAD SWAP2 PUSH1 0x3 SHL SHR DUP2 MSTORE RETURN JUMPDEST CALLVALUE PUSH2 0x39B JUMPI PUSH1 0x0 CALLDATASIZE PUSH1 0x3 NOT ADD SLT PUSH2 0x39B JUMPI PUSH2 0x13D2 PUSH2 0x1D8E JUMP JUMPDEST PUSH1 0x1 DUP1 SLOAD PUSH1 0x1 PUSH1 0x1 PUSH1 0xA0 SHL SUB NOT DUP2 AND SWAP1 SWAP2 SSTORE PUSH1 0x0 SWAP1 PUSH1 0x1 PUSH1 0x1 PUSH1 0xA0 SHL SUB AND PUSH32 0x8BE0079C531659141344CD1FD0A4F28419497F9722A3DAAFE3B4186F6B6457E0 DUP3 DUP1 LOG3 STOP JUMPDEST CALLVALUE PUSH2 0x39B JUMPI PUSH1 0x20 DUP1 PUSH1 0x3 NOT CALLDATASIZE ADD SLT PUSH2 0x39B JUMPI PUSH1 0x4 CALLDATALOAD PUSH2 0x1433 PUSH2 0x1FEB JUMP JUMPDEST DUP1 PUSH1 0x0 MSTORE PUSH1 0x3 DUP3 MSTORE PUSH1 0x40 PUSH1 0x0 KECCAK256 PUSH2 0x144C DUP2 SLOAD ISZERO ISZERO PUSH2 0x2283 JUMP JUMPDEST PUSH1 0x6 DUP2 ADD DUP1 SLOAD PUSH1 0xFF DUP2 AND SWAP1 DUP2 ISZERO PUSH2 0x15F5 JUMPI JUMPDEST POP ISZERO PUSH2 0x15B0 JUMPI DUP3 PUSH1 0x0 MSTORE PUSH1 0x4 DUP5 MSTORE PUSH1 0x40 PUSH1 0x0 KECCAK256 CALLER PUSH1 0x0 MSTORE DUP5 MSTORE PUSH1 0x40 PUSH1 0x0 KECCAK256 SWAP1 PUSH1 0x3 DUP3 ADD DUP1 SLOAD PUSH1 0xFF DUP2 AND PUSH2 0x1561 JUMPI PUSH1 0xFF NOT AND PUSH1 0x1 OR SWAP1 SSTORE SLOAD PUSH1 0x8 SHR PUSH1 0xFF AND ISZERO PUSH2 0x1552 JUMPI PUSH2 0x14A9 SWAP2 PUSH2 0x2913 JUMP JUMPDEST SWAP2 JUMPDEST DUP3 ISZERO PUSH2 0x150E JUMPI PUSH32 0x5380CF6FE903B40C6D5A9E0DFBCA2F3A423F0A21520B4D5947ED5169BDBA946D SWAP1 PUSH2 0x14FE DUP5 CALLER PUSH32 0x0 PUSH2 0x2245 JUMP JUMPDEST PUSH1 0x40 MLOAD SWAP4 DUP5 MSTORE CALLER SWAP4 LOG3 PUSH1 0x1 PUSH1 0x0 SSTORE STOP JUMPDEST PUSH1 0x64 SWAP1 PUSH1 0x40 MLOAD SWAP1 PUSH3 0x461BCD PUSH1 0xE5 SHL DUP3 MSTORE PUSH1 0x4 DUP3 ADD MSTORE PUSH1 0x1D PUSH1 0x24 DUP3 ADD MSTORE PUSH32 0x50726564696374696F6E4D61726B65743A206E6F2077696E6E696E6773000000 PUSH1 0x44 DUP3 ADD MSTORE REVERT JUMPDEST PUSH2 0x155B SWAP2 PUSH2 0x287D JUMP JUMPDEST SWAP2 PUSH2 0x14AB JUMP JUMPDEST PUSH1 0x40 MLOAD PUSH3 0x461BCD PUSH1 0xE5 SHL DUP2 MSTORE PUSH1 0x4 DUP2 ADD DUP9 SWAP1 MSTORE PUSH1 0x21 PUSH1 0x24 DUP3 ADD MSTORE PUSH32 0x50726564696374696F6E4D61726B65743A20616C726561647920636C61696D65 PUSH1 0x44 DUP3 ADD MSTORE PUSH1 0x19 PUSH1 0xFA SHL PUSH1 0x64 DUP3 ADD MSTORE PUSH1 0x84 SWAP1 REVERT JUMPDEST PUSH1 0x40 MLOAD PUSH3 0x461BCD PUSH1 0xE5 SHL DUP2 MSTORE PUSH1 0x4 DUP2 ADD DUP6 SWAP1 MSTORE PUSH1 0x1D PUSH1 0x24 DUP3 ADD MSTORE PUSH32 0x50726564696374696F6E4D61726B65743A206E6F7420736574746C6564000000 PUSH1 0x44 DUP3 ADD MSTORE PUSH1 0x64 SWAP1 REVERT JUMPDEST PUSH1 0xFF SWAP2 POP PUSH1 0x8 SHR AND DUP6 PUSH2 0x145E JUMP JUMPDEST CALLVALUE PUSH2 0x39B JUMPI PUSH1 0x0 CALLDATASIZE PUSH1 0x3 NOT ADD SLT PUSH2 0x39B JUMPI PUSH1 0x20 PUSH1 0x40 MLOAD PUSH2 0x2710 DUP2 MSTORE RETURN JUMPDEST CALLVALUE PUSH2 0x39B JUMPI PUSH2 0x162E CALLDATASIZE PUSH2 0x1B21 JUMP JUMPDEST PUSH2 0x1639 SWAP4 SWAP3 SWAP4 PUSH2 0x1FEB JUMP JUMPDEST PUSH2 0x1642 DUP4 PUSH2 0x2568 JUMP JUMPDEST SWAP2 PUSH1 0x4 DUP6 LT ISZERO PUSH2 0x385 JUMPI PUSH2 0x1657 DUP6 ISZERO ISZERO PUSH2 0x1E23 JUMP JUMPDEST PUSH2 0x1662 DUP2 ISZERO ISZERO PUSH2 0x1E79 JUMP JUMPDEST PUSH1 0x0 NOT DUP6 ADD DUP6 DUP2 GT PUSH2 0x36F JUMPI DUP5 PUSH1 0x0 MSTORE PUSH1 0x4 PUSH1 0x20 MSTORE PUSH1 0x40 PUSH1 0x0 KECCAK256 CALLER PUSH1 0x0 MSTORE PUSH1 0x20 MSTORE PUSH1 0x40 PUSH1 0x0 KECCAK256 SWAP1 DUP1 ISZERO DUP1 PUSH1 0x0 EQ PUSH2 0x180B JUMPI DUP4 DUP4 SLOAD JUMPDEST LT PUSH2 0x17B8 JUMPI PUSH1 0x7 DUP7 ADD PUSH2 0x16B6 PUSH2 0x16AC DUP7 PUSH2 0x2234 JUMP JUMPDEST DUP5 PUSH2 0x1B1 DUP5 PUSH2 0x1EC5 JUMP JUMPDEST SWAP1 PUSH1 0xC8 DUP3 MUL DUP3 DUP2 DIV PUSH1 0xC8 EQ DUP4 ISZERO OR ISZERO PUSH2 0x36F JUMPI PUSH2 0x16E9 SWAP2 PUSH2 0x1F2 PUSH2 0x16E0 PUSH2 0x2710 DUP9 SWAP5 DIV DUP1 SWAP7 PUSH2 0x1DF5 JUMP JUMPDEST SWAP10 DUP11 LT ISZERO PUSH2 0x1F38 JUMP JUMPDEST DUP2 SWAP3 SWAP2 SLOAD SWAP9 DUP10 DUP3 PUSH1 0x3 SHL SHR SWAP4 DUP9 DUP6 SUB SWAP5 PUSH1 0x0 DUP11 SLT DUP2 DUP8 SLT DUP2 AND SWAP2 DUP8 SGT SWAP1 ISZERO AND OR PUSH2 0x36F JUMPI PUSH2 0x230 PUSH2 0x174C SWAP6 PUSH1 0xB SWAP5 PUSH32 0x8FDDDC588076C398F58592A85002B527737EAD18984B402D0BAFB16A07AC96CD SWAP14 SWAP1 PUSH1 0x3 SHL SWAP2 DUP3 SHL SWAP2 PUSH1 0x0 NOT SWAP1 SHL NOT AND OR SWAP1 JUMP JUMPDEST PUSH1 0x7 SSTORE ISZERO PUSH2 0x178E JUMPI POP PUSH2 0x1760 DUP3 DUP3 SLOAD PUSH2 0x1DF5 JUMP JUMPDEST SWAP1 SSTORE JUMPDEST PUSH2 0x30A DUP3 CALLER PUSH32 0x0 PUSH2 0x2245 JUMP JUMPDEST PUSH1 0x1 SUB PUSH2 0x17AA JUMPI PUSH1 0x1 ADD PUSH2 0x17A3 DUP3 DUP3 SLOAD PUSH2 0x1DF5 JUMP JUMPDEST SWAP1 SSTORE PUSH2 0x1763 JUMP JUMPDEST PUSH1 0x2 ADD PUSH2 0x17A3 DUP3 DUP3 SLOAD PUSH2 0x1DF5 JUMP JUMPDEST PUSH1 0x40 MLOAD PUSH3 0x461BCD PUSH1 0xE5 SHL DUP2 MSTORE PUSH1 0x20 PUSH1 0x4 DUP3 ADD MSTORE PUSH1 0x25 PUSH1 0x24 DUP3 ADD MSTORE PUSH32 0x50726564696374696F6E4D61726B65743A20696E73756666696369656E742073 PUSH1 0x44 DUP3 ADD MSTORE PUSH5 0x6861726573 PUSH1 0xD8 SHL PUSH1 0x64 DUP3 ADD MSTORE PUSH1 0x84 SWAP1 REVERT JUMPDEST PUSH1 0x1 DUP3 SUB PUSH2 0x181E JUMPI DUP4 PUSH1 0x1 DUP5 ADD SLOAD PUSH2 0x1697 JUMP JUMPDEST DUP4 PUSH1 0x2 DUP5 ADD SLOAD PUSH2 0x1697 JUMP JUMPDEST CALLVALUE PUSH2 0x39B JUMPI PUSH1 0x60 CALLDATASIZE PUSH1 0x3 NOT ADD SLT PUSH2 0x39B JUMPI PUSH1 0x24 CALLDATALOAD PUSH1 0x4 DUP2 LT ISZERO PUSH2 0x39B JUMPI PUSH1 0x4 CALLDATALOAD PUSH1 0x0 MSTORE PUSH1 0x3 PUSH1 0x20 MSTORE PUSH1 0x40 PUSH1 0x0 KECCAK256 PUSH1 0x0 NOT DUP3 ADD SWAP2 DUP3 GT PUSH2 0x36F JUMPI PUSH2 0x1875 SWAP2 PUSH2 0x1B1 PUSH1 0x7 PUSH1 0x44 CALLDATALOAD SWAP4 ADD PUSH2 0x1EC5 JUMP JUMPDEST PUSH1 0xC8 DUP2 MUL DUP2 DUP2 DIV PUSH1 0xC8 EQ DUP3 ISZERO OR ISZERO PUSH2 0x36F JUMPI PUSH2 0x2710 SWAP1 DIV SWAP1 PUSH2 0x6D2 PUSH2 0x189A DUP4 DUP4 PUSH2 0x1F2B JUMP JUMPDEST PUSH1 0x40 MLOAD SWAP4 DUP5 SWAP4 DUP5 PUSH1 0x40 SWAP2 SWAP5 SWAP4 SWAP3 PUSH1 0x60 DUP3 ADD SWAP6 DUP3 MSTORE PUSH1 0x20 DUP3 ADD MSTORE ADD MSTORE JUMP JUMPDEST CALLVALUE PUSH2 0x39B JUMPI PUSH1 0x0 CALLDATASIZE PUSH1 0x3 NOT ADD SLT PUSH2 0x39B JUMPI PUSH1 0x20 PUSH1 0x40 MLOAD PUSH4 0x5F5E100 DUP2 MSTORE RETURN JUMPDEST CALLVALUE PUSH2 0x39B JUMPI PUSH1 0x0 CALLDATASIZE PUSH1 0x3 NOT ADD SLT PUSH2 0x39B JUMPI PUSH1 0x6 SLOAD PUSH1 0x1 PUSH1 0x1 PUSH1 0xA0 SHL SUB SWAP1 DUP2 AND SWAP1 CALLER DUP3 SWAP1 SUB PUSH2 0x19EA JUMPI PUSH1 0x40 MLOAD PUSH4 0x70A08231 PUSH1 0xE0 SHL DUP2 MSTORE ADDRESS PUSH1 0x4 DUP3 ADD MSTORE SWAP2 PUSH32 0x0 SWAP1 PUSH1 0x20 DUP5 PUSH1 0x24 DUP2 DUP7 DUP7 AND GAS STATICCALL SWAP4 DUP5 ISZERO PUSH2 0x19DE JUMPI PUSH1 0x0 SWAP5 PUSH2 0x19A7 JUMPI JUMPDEST POP SWAP2 PUSH2 0x1991 PUSH1 0x20 SWAP3 PUSH32 0x78473F3F373F7673597F4F0FA5873CB4D375FEA6D4339AD6B56DBD411513CB3F SWAP5 PUSH1 0x7 SLOAD SWAP7 PUSH1 0x0 PUSH1 0x7 SSTORE DUP1 DUP9 GT PUSH1 0x0 EQ PUSH2 0x199F JUMPI SWAP2 PUSH2 0x2245 JUMP JUMPDEST PUSH1 0x6 SLOAD AND SWAP3 PUSH1 0x40 MLOAD SWAP1 DUP2 MSTORE LOG2 STOP JUMPDEST POP DUP7 SWAP2 PUSH2 0x2245 JUMP JUMPDEST SWAP3 SWAP1 SWAP4 POP PUSH1 0x20 DUP4 RETURNDATASIZE DUP3 GT PUSH2 0x19D6 JUMPI JUMPDEST DUP2 PUSH2 0x19C3 PUSH1 0x20 SWAP4 DUP4 PUSH2 0x1C4E JUMP JUMPDEST DUP2 ADD SUB SLT PUSH2 0x39B JUMPI SWAP2 MLOAD SWAP3 PUSH2 0x1991 PUSH2 0x194E JUMP JUMPDEST RETURNDATASIZE SWAP2 POP PUSH2 0x19B6 JUMP JUMPDEST PUSH1 0x40 MLOAD RETURNDATASIZE PUSH1 0x0 DUP3 RETURNDATACOPY RETURNDATASIZE SWAP1 REVERT JUMPDEST PUSH1 0x40 MLOAD PUSH3 0x461BCD PUSH1 0xE5 SHL DUP2 MSTORE PUSH1 0x20 PUSH1 0x4 DUP3 ADD MSTORE PUSH1 0x23 PUSH1 0x24 DUP3 ADD MSTORE PUSH32 0x50726564696374696F6E4D61726B65743A206E6F742066656520726563697069 PUSH1 0x44 DUP3 ADD MSTORE PUSH3 0x195B9D PUSH1 0xEA SHL PUSH1 0x64 DUP3 ADD MSTORE PUSH1 0x84 SWAP1 REVERT JUMPDEST CALLVALUE PUSH2 0x39B JUMPI PUSH1 0x0 CALLDATASIZE PUSH1 0x3 NOT ADD SLT PUSH2 0x39B JUMPI PUSH1 0x6 SLOAD PUSH1 0x40 MLOAD PUSH1 0x1 PUSH1 0x1 PUSH1 0xA0 SHL SUB SWAP1 SWAP2 AND DUP2 MSTORE PUSH1 0x20 SWAP1 RETURN JUMPDEST CALLVALUE PUSH2 0x39B JUMPI PUSH1 0x0 CALLDATASIZE PUSH1 0x3 NOT ADD SLT PUSH2 0x39B JUMPI PUSH1 0x20 PUSH1 0x2 SLOAD PUSH1 0x40 MLOAD SWAP1 DUP2 MSTORE RETURN JUMPDEST CALLVALUE PUSH2 0x39B JUMPI PUSH1 0x0 CALLDATASIZE PUSH1 0x3 NOT ADD SLT PUSH2 0x39B JUMPI PUSH1 0x40 MLOAD PUSH32 0x0 PUSH1 0x1 PUSH1 0x1 PUSH1 0xA0 SHL SUB AND DUP2 MSTORE PUSH1 0x20 SWAP1 RETURN JUMPDEST CALLVALUE PUSH2 0x39B JUMPI PUSH1 0x0 CALLDATASIZE PUSH1 0x3 NOT ADD SLT PUSH2 0x39B JUMPI PUSH1 0x20 PUSH1 0x7 SLOAD PUSH1 0x40 MLOAD SWAP1 DUP2 MSTORE RETURN JUMPDEST CALLVALUE PUSH2 0x39B JUMPI PUSH1 0x20 CALLDATASIZE PUSH1 0x3 NOT ADD SLT PUSH2 0x39B JUMPI PUSH2 0x6D2 PUSH2 0x1B04 PUSH1 0x4 CALLDATALOAD PUSH2 0x2482 JUMP JUMPDEST PUSH1 0x40 DUP1 MLOAD SWAP4 DUP5 MSTORE PUSH1 0x20 DUP5 ADD SWAP3 SWAP1 SWAP3 MSTORE SWAP1 DUP3 ADD MSTORE SWAP1 DUP2 SWAP1 PUSH1 0x60 DUP3 ADD SWAP1 JUMP JUMPDEST PUSH1 0x80 SWAP1 PUSH1 0x3 NOT ADD SLT PUSH2 0x39B JUMPI PUSH1 0x4 CALLDATALOAD SWAP1 PUSH1 0x24 CALLDATALOAD PUSH1 0x4 DUP2 LT ISZERO PUSH2 0x39B JUMPI SWAP1 PUSH1 0x44 CALLDATALOAD SWAP1 PUSH1 0x64 CALLDATALOAD SWAP1 JUMP JUMPDEST PUSH1 0x5 SLOAD DUP2 LT ISZERO PUSH2 0x1B7F JUMPI PUSH1 0x5 PUSH1 0x0 MSTORE PUSH32 0x36B6384B5ECA791C62761152D0C79BB0604C104A5FB6F4EB0703F3154BB3DB0 ADD SWAP1 PUSH1 0x0 SWAP1 JUMP JUMPDEST PUSH4 0x4E487B71 PUSH1 0xE0 SHL PUSH1 0x0 MSTORE PUSH1 0x32 PUSH1 0x4 MSTORE PUSH1 0x24 PUSH1 0x0 REVERT JUMPDEST SWAP2 DUP2 PUSH1 0x1F DUP5 ADD SLT ISZERO PUSH2 0x39B JUMPI DUP3 CALLDATALOAD SWAP2 PUSH1 0x1 PUSH1 0x1 PUSH1 0x40 SHL SUB DUP4 GT PUSH2 0x39B JUMPI PUSH1 0x20 DUP4 DUP2 DUP7 ADD SWAP6 ADD ADD GT PUSH2 0x39B JUMPI JUMP JUMPDEST SWAP1 PUSH1 0x1 DUP3 DUP2 SHR SWAP3 AND DUP1 ISZERO PUSH2 0x1BF2 JUMPI JUMPDEST PUSH1 0x20 DUP4 LT EQ PUSH2 0x1BDC JUMPI JUMP JUMPDEST PUSH4 0x4E487B71 PUSH1 0xE0 SHL PUSH1 0x0 MSTORE PUSH1 0x22 PUSH1 0x4 MSTORE PUSH1 0x24 PUSH1 0x0 REVERT JUMPDEST SWAP2 PUSH1 0x7F AND SWAP2 PUSH2 0x1BD1 JUMP JUMPDEST PUSH1 0x80 DUP2 ADD SWAP1 DUP2 LT PUSH1 0x1 PUSH1 0x1 PUSH1 0x40 SHL SUB DUP3 GT OR PUSH2 0x32F JUMPI PUSH1 0x40 MSTORE JUMP JUMPDEST PUSH2 0x1A0 DUP2 ADD SWAP1 DUP2 LT PUSH1 0x1 PUSH1 0x1 PUSH1 0x40 SHL SUB DUP3 GT OR PUSH2 0x32F JUMPI PUSH1 0x40 MSTORE JUMP JUMPDEST PUSH1 0x60 DUP2 ADD SWAP1 DUP2 LT PUSH1 0x1 PUSH1 0x1 PUSH1 0x40 SHL SUB DUP3 GT OR PUSH2 0x32F JUMPI PUSH1 0x40 MSTORE JUMP JUMPDEST SWAP1 PUSH1 0x1F DUP1 NOT SWAP2 ADD AND DUP2 ADD SWAP1 DUP2 LT PUSH1 0x1 PUSH1 0x1 PUSH1 0x40 SHL SUB DUP3 GT OR PUSH2 0x32F JUMPI PUSH1 0x40 MSTORE JUMP JUMPDEST SWAP1 PUSH1 0x40 MLOAD SWAP2 DUP3 PUSH1 0x0 DUP3 SLOAD SWAP3 PUSH2 0x1C83 DUP5 PUSH2 0x1BC2 JUMP JUMPDEST SWAP1 DUP2 DUP5 MSTORE PUSH1 0x1 SWAP5 DUP6 DUP2 AND SWAP1 DUP2 PUSH1 0x0 EQ PUSH2 0x1CF2 JUMPI POP PUSH1 0x1 EQ PUSH2 0x1CAF JUMPI JUMPDEST POP POP PUSH2 0x1CAD SWAP3 POP SUB DUP4 PUSH2 0x1C4E JUMP JUMPDEST JUMP JUMPDEST SWAP1 SWAP4 SWAP2 POP PUSH1 0x0 MSTORE PUSH1 0x20 SWAP1 DUP2 PUSH1 0x0 KECCAK256 SWAP4 PUSH1 0x0 SWAP2 JUMPDEST DUP2 DUP4 LT PUSH2 0x1CDA JUMPI POP POP PUSH2 0x1CAD SWAP4 POP DUP3 ADD ADD CODESIZE DUP1 PUSH2 0x1C9F JUMP JUMPDEST DUP6 SLOAD DUP9 DUP5 ADD DUP6 ADD MSTORE SWAP5 DUP6 ADD SWAP5 DUP8 SWAP5 POP SWAP2 DUP4 ADD SWAP2 PUSH2 0x1CC2 JUMP JUMPDEST SWAP2 POP POP PUSH2 0x1CAD SWAP5 POP PUSH1 0x20 SWAP3 POP PUSH1 0xFF NOT AND DUP3 DUP5 ADD MSTORE ISZERO ISZERO PUSH1 0x5 SHL DUP3 ADD ADD CODESIZE DUP1 PUSH2 0x1C9F JUMP JUMPDEST SWAP2 SWAP1 DUP3 MLOAD SWAP3 DUP4 DUP3 MSTORE PUSH1 0x0 JUMPDEST DUP5 DUP2 LT PUSH2 0x1D41 JUMPI POP POP DUP3 PUSH1 0x0 PUSH1 0x20 DUP1 SWAP5 SWAP6 DUP5 ADD ADD MSTORE PUSH1 0x1F DUP1 NOT SWAP2 ADD AND ADD ADD SWAP1 JUMP JUMPDEST PUSH1 0x20 DUP2 DUP4 ADD DUP2 ADD MLOAD DUP5 DUP4 ADD DUP3 ADD MSTORE ADD PUSH2 0x1D20 JUMP JUMPDEST SWAP1 PUSH1 0x4 DUP3 LT ISZERO PUSH2 0x385 JUMPI MSTORE JUMP JUMPDEST PUSH1 0x24 CALLDATALOAD SWAP1 PUSH1 0x1 PUSH1 0x1 PUSH1 0xA0 SHL SUB DUP3 AND DUP3 SUB PUSH2 0x39B JUMPI JUMP JUMPDEST PUSH1 0x4 CALLDATALOAD SWAP1 PUSH1 0x1 PUSH1 0x1 PUSH1 0xA0 SHL SUB DUP3 AND DUP3 SUB PUSH2 0x39B JUMPI JUMP JUMPDEST PUSH1 0x1 SLOAD PUSH1 0x1 PUSH1 0x1 PUSH1 0xA0 SHL SUB AND CALLER SUB PUSH2 0x1DA2 JUMPI JUMP JUMPDEST PUSH1 0x64 PUSH1 0x40 MLOAD PUSH3 0x461BCD PUSH1 0xE5 SHL DUP2 MSTORE PUSH1 0x20 PUSH1 0x4 DUP3 ADD MSTORE PUSH1 0x20 PUSH1 0x24 DUP3 ADD MSTORE PUSH32 0x4F776E61626C653A2063616C6C6572206973206E6F7420746865206F776E6572 PUSH1 0x44 DUP3 ADD MSTORE REVERT JUMPDEST PUSH1 0x0 NOT DUP2 EQ PUSH2 0x36F JUMPI PUSH1 0x1 ADD SWAP1 JUMP JUMPDEST SWAP2 SWAP1 DUP3 SUB SWAP2 DUP3 GT PUSH2 0x36F JUMPI JUMP JUMPDEST SWAP1 DUP1 PUSH1 0x20 SWAP4 SWAP3 DUP2 DUP5 MSTORE DUP5 DUP5 ADD CALLDATACOPY PUSH1 0x0 DUP3 DUP3 ADD DUP5 ADD MSTORE PUSH1 0x1F ADD PUSH1 0x1F NOT AND ADD ADD SWAP1 JUMP JUMPDEST ISZERO PUSH2 0x1E2A JUMPI JUMP JUMPDEST PUSH1 0x40 MLOAD PUSH3 0x461BCD PUSH1 0xE5 SHL DUP2 MSTORE PUSH1 0x20 PUSH1 0x4 DUP3 ADD MSTORE PUSH1 0x21 PUSH1 0x24 DUP3 ADD MSTORE PUSH32 0x50726564696374696F6E4D61726B65743A20696E76616C6964206F7574636F6D PUSH1 0x44 DUP3 ADD MSTORE PUSH1 0x65 PUSH1 0xF8 SHL PUSH1 0x64 DUP3 ADD MSTORE PUSH1 0x84 SWAP1 REVERT JUMPDEST ISZERO PUSH2 0x1E80 JUMPI JUMP JUMPDEST PUSH1 0x40 MLOAD PUSH3 0x461BCD PUSH1 0xE5 SHL DUP2 MSTORE PUSH1 0x20 PUSH1 0x4 DUP3 ADD MSTORE PUSH1 0x1D PUSH1 0x24 DUP3 ADD MSTORE PUSH32 0x50726564696374696F6E4D61726B65743A207A65726F20736861726573000000 PUSH1 0x44 DUP3 ADD MSTORE PUSH1 0x64 SWAP1 REVERT JUMPDEST PUSH1 0x40 MLOAD SWAP2 SWAP1 PUSH1 0x0 DUP4 JUMPDEST PUSH1 0x3 DUP3 LT PUSH2 0x1EE2 JUMPI POP POP POP PUSH2 0x1CAD DUP3 PUSH2 0x1C33 JUMP JUMPDEST PUSH1 0x1 PUSH1 0x20 DUP2 SWAP3 DUP6 SLOAD DUP2 MSTORE ADD SWAP4 ADD SWAP2 ADD SWAP1 SWAP2 PUSH2 0x1ECE JUMP JUMPDEST DUP2 DUP2 MUL SWAP3 SWAP2 DUP2 ISZERO SWAP2 DUP5 DIV EQ OR ISZERO PUSH2 0x36F JUMPI JUMP JUMPDEST DUP2 ISZERO PUSH2 0x1F15 JUMPI DIV SWAP1 JUMP JUMPDEST PUSH4 0x4E487B71 PUSH1 0xE0 SHL PUSH1 0x0 MSTORE PUSH1 0x12 PUSH1 0x4 MSTORE PUSH1 0x24 PUSH1 0x0 REVERT JUMPDEST SWAP2 SWAP1 DUP3 ADD DUP1 SWAP3 GT PUSH2 0x36F JUMPI JUMP JUMPDEST ISZERO PUSH2 0x1F3F JUMPI JUMP JUMPDEST PUSH1 0x40 MLOAD PUSH3 0x461BCD PUSH1 0xE5 SHL DUP2 MSTORE PUSH1 0x20 PUSH1 0x4 DUP3 ADD MSTORE PUSH1 0x23 PUSH1 0x24 DUP3 ADD MSTORE PUSH32 0x50726564696374696F6E4D61726B65743A20736C697070616765206578636565 PUSH1 0x44 DUP3 ADD MSTORE PUSH3 0x191959 PUSH1 0xEA SHL PUSH1 0x64 DUP3 ADD MSTORE PUSH1 0x84 SWAP1 REVERT JUMPDEST PUSH1 0x3 DUP3 LT ISZERO PUSH2 0x1B7F JUMPI ADD SWAP1 PUSH1 0x0 SWAP1 JUMP JUMPDEST SWAP2 SWAP1 SWAP2 PUSH1 0x0 DUP4 DUP3 ADD SWAP4 DUP5 SLT SWAP2 SLT SWAP1 DUP1 ISZERO DUP3 AND SWAP2 ISZERO AND OR PUSH2 0x36F JUMPI JUMP JUMPDEST SWAP3 PUSH1 0xA0 SWAP5 SWAP2 SWAP8 SWAP7 SWAP6 SWAP3 PUSH2 0x1FD3 DUP6 PUSH1 0xC0 DUP2 ADD SWAP11 PUSH2 0x1D55 JUMP JUMPDEST PUSH1 0x20 DUP6 ADD MSTORE PUSH1 0x40 DUP5 ADD MSTORE PUSH1 0x60 DUP4 ADD MSTORE PUSH1 0x80 DUP3 ADD MSTORE ADD MSTORE JUMP JUMPDEST PUSH1 0x2 PUSH1 0x0 SLOAD EQ PUSH2 0x1FFC JUMPI PUSH1 0x2 PUSH1 0x0 SSTORE JUMP JUMPDEST PUSH1 0x40 MLOAD PUSH3 0x461BCD PUSH1 0xE5 SHL DUP2 MSTORE PUSH1 0x20 PUSH1 0x4 DUP3 ADD MSTORE PUSH1 0x1F PUSH1 0x24 DUP3 ADD MSTORE PUSH32 0x5265656E7472616E637947756172643A207265656E7472616E742063616C6C00 PUSH1 0x44 DUP3 ADD MSTORE PUSH1 0x64 SWAP1 REVERT JUMPDEST PUSH1 0x1 DUP1 PUSH1 0xA0 SHL SUB AND SWAP1 PUSH1 0x40 MLOAD PUSH1 0x40 DUP2 ADD PUSH1 0x1 PUSH1 0x1 PUSH1 0x40 SHL SUB SWAP1 DUP3 DUP2 LT DUP3 DUP3 GT OR PUSH2 0x32F JUMPI PUSH1 0x40 MSTORE PUSH1 0x20 SWAP4 DUP5 DUP4 MSTORE PUSH32 0x5361666545524332303A206C6F772D6C6576656C2063616C6C206661696C6564 DUP6 DUP5 ADD MSTORE PUSH1 0x0 DUP1 DUP6 DUP8 DUP3 SWAP8 MLOAD SWAP2 ADD DUP3 DUP6 GAS CALL SWAP1 RETURNDATASIZE ISZERO PUSH2 0x218C JUMPI RETURNDATASIZE SWAP3 DUP4 GT PUSH2 0x2178 JUMPI SWAP1 PUSH2 0x20DB SWAP4 SWAP3 SWAP2 PUSH1 0x40 MLOAD SWAP3 PUSH2 0x20CE DUP9 PUSH1 0x1F NOT PUSH1 0x1F DUP5 ADD AND ADD DUP6 PUSH2 0x1C4E JUMP JUMPDEST DUP4 MSTORE RETURNDATASIZE DUP7 DUP9 DUP6 ADD RETURNDATACOPY PUSH2 0x2197 JUMP JUMPDEST DUP1 MLOAD SWAP2 DUP3 ISZERO SWAP2 DUP5 DUP4 ISZERO PUSH2 0x214D JUMPI JUMPDEST POP POP POP SWAP1 POP ISZERO PUSH2 0x20F6 JUMPI POP JUMP JUMPDEST PUSH1 0x84 SWAP1 PUSH1 0x40 MLOAD SWAP1 PUSH3 0x461BCD PUSH1 0xE5 SHL DUP3 MSTORE PUSH1 0x4 DUP3 ADD MSTORE PUSH1 0x2A PUSH1 0x24 DUP3 ADD MSTORE PUSH32 0x5361666545524332303A204552433230206F7065726174696F6E20646964206E PUSH1 0x44 DUP3 ADD MSTORE PUSH10 0x1BDD081CDD58D8D95959 PUSH1 0xB2 SHL PUSH1 0x64 DUP3 ADD MSTORE REVERT JUMPDEST SWAP2 SWAP4 DUP2 DUP1 SWAP5 POP ADD SUB SLT PUSH2 0x2174 JUMPI DUP3 ADD MLOAD SWAP1 DUP2 ISZERO ISZERO DUP3 SUB PUSH2 0x2171 JUMPI POP DUP1 CODESIZE DUP1 DUP5 PUSH2 0x20E9 JUMP JUMPDEST DUP1 REVERT JUMPDEST POP DUP1 REVERT JUMPDEST PUSH4 0x4E487B71 PUSH1 0xE0 SHL DUP6 MSTORE PUSH1 0x41 PUSH1 0x4 MSTORE PUSH1 0x24 DUP6 REVERT JUMPDEST SWAP1 PUSH2 0x20DB SWAP4 SWAP3 POP PUSH1 0x60 SWAP2 JUMPDEST SWAP2 SWAP3 SWAP1 ISZERO PUSH2 0x21F9 JUMPI POP DUP2 MLOAD ISZERO PUSH2 0x21AB JUMPI POP SWAP1 JUMP JUMPDEST EXTCODESIZE ISZERO PUSH2 0x21B4 JUMPI SWAP1 JUMP JUMPDEST PUSH1 0x40 MLOAD PUSH3 0x461BCD PUSH1 0xE5 SHL DUP2 MSTORE PUSH1 0x20 PUSH1 0x4 DUP3 ADD MSTORE PUSH1 0x1D PUSH1 0x24 DUP3 ADD MSTORE PUSH32 0x416464726573733A2063616C6C20746F206E6F6E2D636F6E7472616374000000 PUSH1 0x44 DUP3 ADD MSTORE PUSH1 0x64 SWAP1 REVERT JUMPDEST DUP3 MLOAD SWAP1 SWAP2 POP ISZERO PUSH2 0x220C JUMPI POP DUP1 MLOAD SWAP1 PUSH1 0x20 ADD REVERT JUMPDEST PUSH1 0x40 MLOAD PUSH3 0x461BCD PUSH1 0xE5 SHL DUP2 MSTORE PUSH1 0x20 PUSH1 0x4 DUP3 ADD MSTORE SWAP1 DUP2 SWAP1 PUSH2 0x2230 SWAP1 PUSH1 0x24 DUP4 ADD SWAP1 PUSH2 0x1D15 JUMP JUMPDEST SUB SWAP1 REVERT JUMPDEST PUSH1 0x1 PUSH1 0xFF SHL DUP2 EQ PUSH2 0x36F JUMPI PUSH1 0x0 SUB SWAP1 JUMP JUMPDEST PUSH1 0x40 MLOAD PUSH4 0xA9059CBB PUSH1 0xE0 SHL PUSH1 0x20 DUP3 ADD MSTORE PUSH1 0x1 PUSH1 0x1 PUSH1 0xA0 SHL SUB SWAP1 SWAP3 AND PUSH1 0x24 DUP4 ADD MSTORE PUSH1 0x44 DUP1 DUP4 ADD SWAP4 SWAP1 SWAP4 MSTORE SWAP2 DUP2 MSTORE PUSH2 0x1CAD SWAP2 PUSH2 0x227E DUP3 PUSH2 0x1BFC JUMP JUMPDEST PUSH2 0x2041 JUMP JUMPDEST ISZERO PUSH2 0x228A JUMPI JUMP JUMPDEST PUSH1 0x40 MLOAD PUSH3 0x461BCD PUSH1 0xE5 SHL DUP2 MSTORE PUSH1 0x20 PUSH1 0x4 DUP3 ADD MSTORE PUSH1 0x22 PUSH1 0x24 DUP3 ADD MSTORE PUSH32 0x50726564696374696F6E4D61726B65743A206D61726B6574206E6F7420666F75 PUSH1 0x44 DUP3 ADD MSTORE PUSH2 0x1B99 PUSH1 0xF2 SHL PUSH1 0x64 DUP3 ADD MSTORE PUSH1 0x84 SWAP1 REVERT JUMPDEST ISZERO PUSH2 0x22E1 JUMPI JUMP JUMPDEST PUSH1 0x40 MLOAD PUSH3 0x461BCD PUSH1 0xE5 SHL DUP2 MSTORE PUSH1 0x20 PUSH1 0x4 DUP3 ADD MSTORE PUSH1 0x22 PUSH1 0x24 DUP3 ADD MSTORE PUSH32 0x50726564696374696F6E4D61726B65743A20616C7265616479207265736F6C76 PUSH1 0x44 DUP3 ADD MSTORE PUSH2 0x1959 PUSH1 0xF2 SHL PUSH1 0x64 DUP3 ADD MSTORE PUSH1 0x84 SWAP1 REVERT JUMPDEST ISZERO PUSH2 0x2338 JUMPI JUMP JUMPDEST PUSH1 0x40 MLOAD PUSH3 0x461BCD PUSH1 0xE5 SHL DUP2 MSTORE PUSH1 0x20 PUSH1 0x4 DUP3 ADD MSTORE PUSH1 0x1B PUSH1 0x24 DUP3 ADD MSTORE PUSH32 0x50726564696374696F6E4D61726B65743A2063616E63656C6C65640000000000 PUSH1 0x44 DUP3 ADD MSTORE PUSH1 0x64 SWAP1 REVERT JUMPDEST SWAP1 PUSH1 0x3 DUP2 LT ISZERO PUSH2 0x1B7F JUMPI PUSH1 0x5 SHL ADD SWAP1 JUMP JUMPDEST ISZERO PUSH2 0x2395 JUMPI JUMP JUMPDEST PUSH1 0x64 PUSH1 0x40 MLOAD PUSH3 0x461BCD PUSH1 0xE5 SHL DUP2 MSTORE PUSH1 0x20 PUSH1 0x4 DUP3 ADD MSTORE PUSH1 0x20 PUSH1 0x24 DUP3 ADD MSTORE PUSH32 0x50726564696374696F6E4D61726B65743A204C4D535220756E646572666C6F77 PUSH1 0x44 DUP3 ADD MSTORE REVERT JUMPDEST SWAP2 SWAP1 PUSH2 0x2452 PUSH2 0x244C PUSH1 0x0 SWAP3 PUSH1 0x40 MLOAD SWAP1 PUSH2 0x23F1 DUP3 PUSH2 0x1C33 JUMP JUMPDEST DUP7 MLOAD DUP3 MSTORE PUSH1 0x20 DUP8 ADD DUP1 MLOAD PUSH1 0x20 DUP5 ADD MSTORE PUSH1 0x40 DUP9 ADD SWAP1 DUP2 MLOAD PUSH1 0x40 DUP6 ADD MSTORE PUSH1 0x40 MLOAD SWAP9 PUSH2 0x2419 DUP11 PUSH2 0x1C33 JUMP JUMPDEST MLOAD DUP10 MSTORE MLOAD PUSH1 0x20 DUP10 ADD MSTORE MLOAD PUSH1 0x40 DUP9 ADD MSTORE PUSH2 0x2446 PUSH2 0x243F DUP8 PUSH2 0x2439 DUP5 DUP12 PUSH2 0x237D JUMP JUMPDEST MLOAD PUSH2 0x1FA0 JUMP JUMPDEST SWAP2 DUP9 PUSH2 0x237D JUMP JUMPDEST MSTORE PUSH2 0x25F4 JUMP JUMPDEST SWAP4 PUSH2 0x25F4 JUMP JUMPDEST SWAP2 SGT ISZERO PUSH2 0x2472 JUMPI SWAP1 DUP2 PUSH2 0x246A DUP3 PUSH2 0x246F SWAP5 LT ISZERO PUSH2 0x238E JUMP JUMPDEST PUSH2 0x1DF5 JUMP JUMPDEST SWAP1 JUMP JUMPDEST DUP2 PUSH2 0x246A DUP3 PUSH2 0x246F SWAP5 LT ISZERO PUSH2 0x238E JUMP JUMPDEST PUSH1 0x0 SWAP1 DUP2 MSTORE PUSH1 0x3 PUSH1 0x20 MSTORE PUSH1 0x40 DUP2 KECCAK256 SWAP2 PUSH2 0x249E PUSH1 0x7 DUP5 ADD SLOAD PUSH2 0x264D JUMP JUMPDEST SWAP2 PUSH2 0x24B9 PUSH1 0x9 PUSH2 0x24B1 PUSH1 0x8 DUP8 ADD SLOAD PUSH2 0x264D JUMP JUMPDEST SWAP6 ADD SLOAD PUSH2 0x264D JUMP JUMPDEST SWAP3 PUSH2 0x24CD DUP5 PUSH2 0x24C8 DUP8 DUP5 PUSH2 0x1F2B JUMP JUMPDEST PUSH2 0x1F2B JUMP JUMPDEST SWAP2 DUP3 ISZERO PUSH2 0x2554 JUMPI PUSH3 0xF4240 SWAP2 DUP3 DUP2 MUL SWAP1 DUP1 DUP3 DIV DUP5 EQ SWAP1 ISZERO OR ISZERO PUSH2 0x2540 JUMPI DUP4 PUSH2 0x24F4 SWAP2 PUSH2 0x1F0B JUMP JUMPDEST SWAP6 DUP3 DUP2 MUL SWAP1 DUP1 DUP3 DIV DUP5 EQ SWAP1 ISZERO OR ISZERO PUSH2 0x2540 JUMPI DUP4 PUSH2 0x2510 SWAP2 PUSH2 0x1F0B JUMP JUMPDEST SWAP5 DUP3 DUP2 MUL SWAP3 DUP2 DUP5 DIV EQ SWAP1 ISZERO OR ISZERO PUSH2 0x252C JUMPI POP SWAP1 PUSH2 0x246F SWAP2 PUSH2 0x1F0B JUMP JUMPDEST PUSH4 0x4E487B71 PUSH1 0xE0 SHL DUP2 MSTORE PUSH1 0x11 PUSH1 0x4 MSTORE PUSH1 0x24 SWAP1 REVERT JUMPDEST PUSH4 0x4E487B71 PUSH1 0xE0 SHL DUP3 MSTORE PUSH1 0x11 PUSH1 0x4 MSTORE PUSH1 0x24 DUP3 REVERT JUMPDEST POP POP POP SWAP2 POP POP PUSH3 0x51615 SWAP1 DUP2 SWAP1 PUSH3 0x51616 SWAP1 JUMP JUMPDEST PUSH1 0x0 MSTORE PUSH1 0x3 PUSH1 0x20 MSTORE PUSH1 0x40 PUSH1 0x0 KECCAK256 SWAP1 PUSH2 0x2582 DUP3 SLOAD ISZERO ISZERO PUSH2 0x2283 JUMP JUMPDEST PUSH2 0x25A2 PUSH1 0xFF PUSH1 0x6 DUP5 ADD SLOAD PUSH2 0x2598 DUP3 DUP3 AND ISZERO PUSH2 0x22DA JUMP JUMPDEST PUSH1 0x8 SHR AND ISZERO PUSH2 0x2331 JUMP JUMPDEST PUSH1 0x5 DUP3 ADD SLOAD TIMESTAMP LT ISZERO PUSH2 0x25B0 JUMPI JUMP JUMPDEST PUSH1 0x64 PUSH1 0x40 MLOAD PUSH3 0x461BCD PUSH1 0xE5 SHL DUP2 MSTORE PUSH1 0x20 PUSH1 0x4 DUP3 ADD MSTORE PUSH1 0x20 PUSH1 0x24 DUP3 ADD MSTORE PUSH32 0x50726564696374696F6E4D61726B65743A2062657474696E6720636C6F736564 PUSH1 0x44 DUP3 ADD MSTORE REVERT JUMPDEST PUSH2 0x2629 PUSH2 0x262E SWAP2 PUSH2 0x24C8 PUSH2 0x2608 DUP3 MLOAD PUSH2 0x264D JUMP JUMPDEST SWAP2 PUSH2 0x2623 PUSH1 0x40 PUSH2 0x261B PUSH1 0x20 DUP5 ADD MLOAD PUSH2 0x264D JUMP JUMPDEST SWAP3 ADD MLOAD PUSH2 0x264D JUMP JUMPDEST SWAP3 PUSH2 0x1F2B JUMP JUMPDEST PUSH2 0x26AB JUMP JUMPDEST PUSH4 0x5F5E100 SWAP1 DUP1 DUP3 MUL SWAP2 DUP3 DIV SUB PUSH2 0x36F JUMPI PUSH8 0xDE0B6B3A7640000 SWAP1 DIV SWAP1 JUMP JUMPDEST PUSH8 0xDE0B6B3A7640000 SWAP1 DUP2 DUP2 MUL SWAP2 DUP2 DUP4 SDIV EQ SWAP1 ISZERO OR ISZERO PUSH2 0x36F JUMPI PUSH4 0x5F5E100 PUSH2 0x246F SWAP2 SDIV PUSH8 0x8AC7230489E80000 DUP1 DUP3 SGT PUSH2 0x26A3 JUMPI JUMPDEST POP PUSH8 0x8AC7230489E7FFFF NOT DUP1 DUP3 SLT PUSH2 0x269B JUMPI JUMPDEST POP PUSH2 0x2796 JUMP JUMPDEST SWAP1 POP CODESIZE PUSH2 0x2695 JUMP JUMPDEST SWAP1 POP CODESIZE PUSH2 0x2682 JUMP JUMPDEST DUP1 ISZERO PUSH2 0x2790 JUMPI PUSH1 0x0 SWAP1 JUMPDEST PUSH8 0x1BC16D674EC80000 DUP2 LT ISZERO PUSH2 0x277D JUMPI JUMPDEST PUSH8 0xDE0B6B3A7640000 DUP2 LT PUSH2 0x2759 JUMPI PUSH8 0xDE0B6B3A763FFFF NOT DUP2 ADD SWAP1 DUP2 GT PUSH2 0x36F JUMPI DUP1 PUSH8 0x29A2241AF62C0000 PUSH2 0x272F PUSH2 0x2715 PUSH8 0x1BC16D674EC80000 PUSH2 0x270E DUP6 PUSH2 0x2736 SWAP8 PUSH2 0x1EF8 JUMP JUMPDEST DIV DUP5 PUSH2 0x1DF5 JUMP JUMPDEST SWAP3 PUSH8 0xDE0B6B3A7640000 PUSH2 0x2729 DUP3 DUP1 PUSH2 0x1EF8 JUMP JUMPDEST DIV PUSH2 0x1EF8 JUMP JUMPDEST DIV SWAP1 PUSH2 0x1F2B JUMP JUMPDEST PUSH8 0x99E8DB03256CE5D SWAP2 DUP3 DUP2 MUL SWAP3 DUP2 DUP5 DIV EQ SWAP1 ISZERO OR ISZERO PUSH2 0x36F JUMPI PUSH2 0x246F SWAP2 PUSH2 0x1F2B JUMP JUMPDEST DUP1 PUSH1 0x1 SHL SWAP1 DUP1 DUP3 DIV PUSH1 0x2 EQ SWAP1 ISZERO OR ISZERO PUSH2 0x36F JUMPI SWAP1 DUP1 ISZERO PUSH2 0x36F JUMPI PUSH1 0x0 NOT ADD SWAP1 PUSH2 0x26C6 JUMP JUMPDEST PUSH2 0x278A SWAP1 PUSH1 0x1 SHR SWAP2 PUSH2 0x1DE6 JUMP JUMPDEST SWAP1 PUSH2 0x26B5 JUMP JUMPDEST POP PUSH1 0x0 SWAP1 JUMP JUMPDEST DUP1 ISZERO PUSH2 0x2870 JUMPI PUSH1 0x0 DUP1 DUP3 SLT SWAP2 DUP3 ISZERO PUSH2 0x286A JUMPI PUSH2 0x27B1 SWAP1 PUSH2 0x2234 JUMP JUMPDEST SWAP2 JUMPDEST PUSH8 0xDE0B6B3A7640000 SWAP3 PUSH1 0x1 SWAP1 DUP5 JUMPDEST PUSH1 0xC DUP4 GT ISZERO PUSH2 0x2805 JUMPI POP POP POP PUSH2 0x27D6 JUMPI POP SWAP1 JUMP JUMPDEST DUP2 ISZERO PUSH2 0x27F1 JUMPI POP PUSH15 0xC097CE7BC90715B34B9F1000000000 DIV SWAP1 JUMP JUMPDEST PUSH4 0x4E487B71 PUSH1 0xE0 SHL DUP2 MSTORE PUSH1 0x12 PUSH1 0x4 MSTORE PUSH1 0x24 SWAP1 REVERT JUMPDEST DUP2 PUSH2 0x2812 SWAP2 SWAP7 SWAP4 SWAP7 PUSH2 0x1EF8 JUMP JUMPDEST PUSH8 0xDE0B6B3A7640000 DUP7 MUL SWAP1 DUP7 DUP3 DIV PUSH8 0xDE0B6B3A7640000 EQ DUP8 ISZERO OR ISZERO PUSH2 0x2856 JUMPI PUSH2 0x2843 PUSH2 0x2850 SWAP3 PUSH2 0x284A SWAP3 PUSH2 0x1F0B JUMP JUMPDEST DUP1 SWAP5 PUSH2 0x1F2B JUMP JUMPDEST SWAP6 PUSH2 0x1DE6 JUMP JUMPDEST SWAP2 PUSH2 0x27C2 JUMP JUMPDEST PUSH4 0x4E487B71 PUSH1 0xE0 SHL DUP7 MSTORE PUSH1 0x11 PUSH1 0x4 MSTORE PUSH1 0x24 DUP7 REVERT JUMPDEST SWAP2 PUSH2 0x27B3 JUMP JUMPDEST POP PUSH8 0xDE0B6B3A7640000 SWAP1 JUMP JUMPDEST PUSH1 0xFF PUSH1 0x6 DUP3 ADD SLOAD PUSH1 0x10 SHR AND SWAP2 PUSH1 0x4 DUP4 LT ISZERO PUSH2 0x385 JUMPI PUSH1 0x0 NOT DUP4 ADD SWAP3 DUP4 GT PUSH2 0x36F JUMPI DUP3 PUSH2 0x28F7 JUMPI SLOAD SWAP2 JUMPDEST DUP3 ISZERO PUSH2 0x28EF JUMPI PUSH2 0x28B9 SWAP1 PUSH1 0x7 DUP4 ADD PUSH2 0x1F90 JUMP JUMPDEST SWAP1 SLOAD SWAP1 PUSH1 0x3 SHL SHR SWAP1 PUSH1 0x0 DUP3 SGT ISZERO PUSH2 0x28EF JUMPI PUSH2 0x246F SWAP3 PUSH2 0x28E5 DUP3 PUSH1 0xB PUSH1 0xA PUSH2 0x28EA SWAP6 ADD SLOAD SWAP2 ADD SLOAD SWAP1 PUSH2 0x1DF5 JUMP JUMPDEST PUSH2 0x1EF8 JUMP JUMPDEST PUSH2 0x1F0B JUMP JUMPDEST POP POP POP PUSH1 0x0 SWAP1 JUMP JUMPDEST PUSH1 0x1 DUP4 SUB PUSH2 0x2909 JUMPI PUSH1 0x1 ADD SLOAD SWAP2 PUSH2 0x28A6 JUMP JUMPDEST PUSH1 0x2 ADD SLOAD SWAP2 PUSH2 0x28A6 JUMP JUMPDEST SWAP1 PUSH2 0x2959 PUSH2 0x2943 PUSH1 0x7 DUP5 ADD SLOAD PUSH1 0x0 DUP1 DUP3 SGT PUSH1 0x0 EQ PUSH2 0x29A2 JUMPI POP JUMPDEST PUSH1 0x8 DUP6 ADD SLOAD PUSH1 0x0 DUP1 DUP3 SGT ISZERO PUSH2 0x299A JUMPI POP SWAP1 PUSH2 0x1FA0 JUMP JUMPDEST PUSH1 0x9 DUP5 ADD SLOAD PUSH1 0x0 DUP1 DUP3 SGT ISZERO PUSH2 0x299A JUMPI POP SWAP1 PUSH2 0x1FA0 JUMP JUMPDEST SWAP1 DUP2 ISZERO PUSH2 0x28EF JUMPI PUSH2 0x246F SWAP3 PUSH2 0x28E5 PUSH2 0x2989 DUP4 PUSH1 0x2 PUSH2 0x2980 PUSH2 0x28EA SWAP7 SLOAD PUSH1 0x1 DUP5 ADD SLOAD SWAP1 PUSH2 0x1F2B JUMP JUMPDEST SWAP2 ADD SLOAD SWAP1 PUSH2 0x1F2B JUMP JUMPDEST SWAP2 PUSH1 0xB PUSH1 0xA DUP3 ADD SLOAD SWAP2 ADD SLOAD SWAP1 PUSH2 0x1DF5 JUMP JUMPDEST SWAP1 POP SWAP1 PUSH2 0x1FA0 JUMP JUMPDEST SWAP1 POP PUSH2 0x292D JUMP INVALID LOG2 PUSH5 0x6970667358 0x22 SLT KECCAK256 DUP15 DELEGATECALL SWAP11 JUMPDEST 0xA6 PUSH16 0x2CA1E2E1475A462287A9741E93ABA94C 0x1E PUSH1 0x42 PC SWAP14 SWAP16 SWAP6 0xC PUSH1 0x9C PUSH5 0x736F6C6343 STOP ADDMOD EQ STOP CALLER "},"methodIdentifiers":{"BPS_DENOM()":"6637e38c","FEE_BPS()":"bf333f2c","LMSR_B()":"4962db64","bet(uint256,uint8,uint256,uint256)":"fe965040","cancelMarket(uint256)":"7c16cd9e","claimWinnings(uint256)":"677bd9ff","createMarket(string,string,string,uint256,string)":"89c00067","feeRecipient()":"46904840","getAllMarketIds()":"b85ed636","getMarket(uint256)":"eb44fdd3","getMarketCount()":"fd69f3c2","getOdds(uint256)":"126c4166","getPosition(uint256,address)":"d29f541d","lmsrCost(int256[3],uint256,int256)":"e10a482f","marketIds(uint256)":"779a9683","markets(uint256)":"b1283e77","nextMarketId()":"406ef2ef","owner()":"8da5cb5b","positions(uint256,address)":"e684d718","previewBet(uint256,uint8,uint256)":"4ede7074","renounceOwnership()":"715018a6","resolveMarket(uint256,uint8)":"df55406e","sellShares(uint256,uint8,uint256,uint256)":"590528a9","setFeeRecipient(address)":"e74b981b","totalFeesEarned()":"1ab9550a","transferOwnership(address)":"f2fde38b","usdc()":"3e413bee","withdrawFees()":"476343ee"}}}}}