{
  "_format": "hh-sol-artifact-1",
  "contractName": "PredictionMarket",
  "sourceName": "contracts/PredictionMarket.sol",
  "abi": [
    {
      "inputs": [
        {
          "internalType": "address",
          "name": "_usdc",
          "type": "address"
        },
        {
          "internalType": "address",
          "name": "_feeRecipient",
          "type": "address"
        }
      ],
      "stateMutability": "nonpayable",
      "type": "constructor"
    },
    {
      "anonymous": false,
      "inputs": [
        {
          "indexed": true,
          "internalType": "uint256",
          "name": "marketId",
          "type": "uint256"
        },
        {
          "indexed": true,
          "internalType": "address",
          "name": "bettor",
          "type": "address"
        },
        {
          "indexed": false,
          "internalType": "enum PredictionMarket.Outcome",
          "name": "outcome",
          "type": "uint8"
        },
        {
          "indexed": false,
          "internalType": "uint256",
          "name": "cost",
          "type": "uint256"
        },
        {
          "indexed": false,
          "internalType": "uint256",
          "name": "shares",
          "type": "uint256"
        },
        {
          "indexed": false,
          "internalType": "uint256",
          "name": "newOddsHome",
          "type": "uint256"
        },
        {
          "indexed": false,
          "internalType": "uint256",
          "name": "newOddsAway",
          "type": "uint256"
        },
        {
          "indexed": false,
          "internalType": "uint256",
          "name": "newOddsDraw",
          "type": "uint256"
        }
      ],
      "name": "BetPlaced",
      "type": "event"
    },
    {
      "anonymous": false,
      "inputs": [
        {
          "indexed": true,
          "internalType": "address",
          "name": "recipient",
          "type": "address"
        },
        {
          "indexed": false,
          "internalType": "uint256",
          "name": "amount",
          "type": "uint256"
        }
      ],
      "name": "FeeWithdrawn",
      "type": "event"
    },
    {
      "anonymous": false,
      "inputs": [
        {
          "indexed": true,
          "internalType": "uint256",
          "name": "marketId",
          "type": "uint256"
        }
      ],
      "name": "MarketCancelled",
      "type": "event"
    },
    {
      "anonymous": false,
      "inputs": [
        {
          "indexed": true,
          "internalType": "uint256",
          "name": "marketId",
          "type": "uint256"
        },
        {
          "indexed": false,
          "internalType": "string",
          "name": "homeTeam",
          "type": "string"
        },
        {
          "indexed": false,
          "internalType": "string",
          "name": "awayTeam",
          "type": "string"
        },
        {
          "indexed": false,
          "internalType": "string",
          "name": "league",
          "type": "string"
        },
        {
          "indexed": false,
          "internalType": "uint256",
          "name": "matchTimestamp",
          "type": "uint256"
        },
        {
          "indexed": false,
          "internalType": "string",
          "name": "externalMatchId",
          "type": "string"
        }
      ],
      "name": "MarketCreated",
      "type": "event"
    },
    {
      "anonymous": false,
      "inputs": [
        {
          "indexed": true,
          "internalType": "uint256",
          "name": "marketId",
          "type": "uint256"
        },
        {
          "indexed": false,
          "internalType": "enum PredictionMarket.Outcome",
          "name": "winner",
          "type": "uint8"
        },
        {
          "indexed": false,
          "internalType": "uint256",
          "name": "totalVolume",
          "type": "uint256"
        }
      ],
      "name": "MarketResolved",
      "type": "event"
    },
    {
      "anonymous": false,
      "inputs": [
        {
          "indexed": true,
          "internalType": "address",
          "name": "previousOwner",
          "type": "address"
        },
        {
          "indexed": true,
          "internalType": "address",
          "name": "newOwner",
          "type": "address"
        }
      ],
      "name": "OwnershipTransferred",
      "type": "event"
    },
    {
      "anonymous": false,
      "inputs": [
        {
          "indexed": true,
          "internalType": "uint256",
          "name": "marketId",
          "type": "uint256"
        },
        {
          "indexed": true,
          "internalType": "address",
          "name": "seller",
          "type": "address"
        },
        {
          "indexed": false,
          "internalType": "enum PredictionMarket.Outcome",
          "name": "outcome",
          "type": "uint8"
        },
        {
          "indexed": false,
          "internalType": "uint256",
          "name": "sharesSold",
          "type": "uint256"
        },
        {
          "indexed": false,
          "internalType": "uint256",
          "name": "proceeds",
          "type": "uint256"
        },
        {
          "indexed": false,
          "internalType": "uint256",
          "name": "newOddsHome",
          "type": "uint256"
        },
        {
          "indexed": false,
          "internalType": "uint256",
          "name": "newOddsAway",
          "type": "uint256"
        },
        {
          "indexed": false,
          "internalType": "uint256",
          "name": "newOddsDraw",
          "type": "uint256"
        }
      ],
      "name": "SharesSold",
      "type": "event"
    },
    {
      "anonymous": false,
      "inputs": [
        {
          "indexed": true,
          "internalType": "uint256",
          "name": "marketId",
          "type": "uint256"
        },
        {
          "indexed": true,
          "internalType": "address",
          "name": "claimant",
          "type": "address"
        },
        {
          "indexed": false,
          "internalType": "uint256",
          "name": "amount",
          "type": "uint256"
        }
      ],
      "name": "WinningsClaimed",
      "type": "event"
    },
    {
      "inputs": [],
      "name": "BPS_DENOM",
      "outputs": [
        {
          "internalType": "uint256",
          "name": "",
          "type": "uint256"
        }
      ],
      "stateMutability": "view",
      "type": "function"
    },
    {
      "inputs": [],
      "name": "FEE_BPS",
      "outputs": [
        {
          "internalType": "uint256",
          "name": "",
          "type": "uint256"
        }
      ],
      "stateMutability": "view",
      "type": "function"
    },
    {
      "inputs": [],
      "name": "LMSR_B",
      "outputs": [
        {
          "internalType": "uint256",
          "name": "",
          "type": "uint256"
        }
      ],
      "stateMutability": "view",
      "type": "function"
    },
    {
      "inputs": [
        {
          "internalType": "uint256",
          "name": "marketId",
          "type": "uint256"
        },
        {
          "internalType": "enum PredictionMarket.Outcome",
          "name": "outcome",
          "type": "uint8"
        },
        {
          "internalType": "uint256",
          "name": "shares",
          "type": "uint256"
        },
        {
          "internalType": "uint256",
          "name": "maxCost",
          "type": "uint256"
        }
      ],
      "name": "bet",
      "outputs": [],
      "stateMutability": "nonpayable",
      "type": "function"
    },
    {
      "inputs": [
        {
          "internalType": "uint256",
          "name": "marketId",
          "type": "uint256"
        }
      ],
      "name": "cancelMarket",
      "outputs": [],
      "stateMutability": "nonpayable",
      "type": "function"
    },
    {
      "inputs": [
        {
          "internalType": "uint256",
          "name": "marketId",
          "type": "uint256"
        }
      ],
      "name": "claimWinnings",
      "outputs": [],
      "stateMutability": "nonpayable",
      "type": "function"
    },
    {
      "inputs": [
        {
          "internalType": "string",
          "name": "homeTeam",
          "type": "string"
        },
        {
          "internalType": "string",
          "name": "awayTeam",
          "type": "string"
        },
        {
          "internalType": "string",
          "name": "league",
          "type": "string"
        },
        {
          "internalType": "uint256",
          "name": "matchTimestamp",
          "type": "uint256"
        },
        {
          "internalType": "string",
          "name": "externalMatchId",
          "type": "string"
        }
      ],
      "name": "createMarket",
      "outputs": [
        {
          "internalType": "uint256",
          "name": "marketId",
          "type": "uint256"
        }
      ],
      "stateMutability": "nonpayable",
      "type": "function"
    },
    {
      "inputs": [],
      "name": "feeRecipient",
      "outputs": [
        {
          "internalType": "address",
          "name": "",
          "type": "address"
        }
      ],
      "stateMutability": "view",
      "type": "function"
    },
    {
      "inputs": [],
      "name": "getAllMarketIds",
      "outputs": [
        {
          "internalType": "uint256[]",
          "name": "",
          "type": "uint256[]"
        }
      ],
      "stateMutability": "view",
      "type": "function"
    },
    {
      "inputs": [
        {
          "internalType": "uint256",
          "name": "marketId",
          "type": "uint256"
        }
      ],
      "name": "getMarket",
      "outputs": [
        {
          "components": [
            {
              "internalType": "uint256",
              "name": "id",
              "type": "uint256"
            },
            {
              "internalType": "string",
              "name": "homeTeam",
              "type": "string"
            },
            {
              "internalType": "string",
              "name": "awayTeam",
              "type": "string"
            },
            {
              "internalType": "string",
              "name": "league",
              "type": "string"
            },
            {
              "internalType": "uint256",
              "name": "matchTimestamp",
              "type": "uint256"
            },
            {
              "internalType": "uint256",
              "name": "closingTime",
              "type": "uint256"
            },
            {
              "internalType": "bool",
              "name": "resolved",
              "type": "bool"
            },
            {
              "internalType": "bool",
              "name": "cancelled",
              "type": "bool"
            },
            {
              "internalType": "enum PredictionMarket.Outcome",
              "name": "winner",
              "type": "uint8"
            },
            {
              "internalType": "int256[3]",
              "name": "shares",
              "type": "int256[3]"
            },
            {
              "internalType": "uint256",
              "name": "totalVolume",
              "type": "uint256"
            },
            {
              "internalType": "uint256",
              "name": "feesCollected",
              "type": "uint256"
            },
            {
              "internalType": "string",
              "name": "externalMatchId",
              "type": "string"
            }
          ],
          "internalType": "struct PredictionMarket.Market",
          "name": "",
          "type": "tuple"
        }
      ],
      "stateMutability": "view",
      "type": "function"
    },
    {
      "inputs": [],
      "name": "getMarketCount",
      "outputs": [
        {
          "internalType": "uint256",
          "name": "",
          "type": "uint256"
        }
      ],
      "stateMutability": "view",
      "type": "function"
    },
    {
      "inputs": [
        {
          "internalType": "uint256",
          "name": "marketId",
          "type": "uint256"
        }
      ],
      "name": "getOdds",
      "outputs": [
        {
          "internalType": "uint256",
          "name": "probHome",
          "type": "uint256"
        },
        {
          "internalType": "uint256",
          "name": "probAway",
          "type": "uint256"
        },
        {
          "internalType": "uint256",
          "name": "probDraw",
          "type": "uint256"
        }
      ],
      "stateMutability": "view",
      "type": "function"
    },
    {
      "inputs": [
        {
          "internalType": "uint256",
          "name": "marketId",
          "type": "uint256"
        },
        {
          "internalType": "address",
          "name": "user",
          "type": "address"
        }
      ],
      "name": "getPosition",
      "outputs": [
        {
          "components": [
            {
              "internalType": "uint256",
              "name": "sharesHome",
              "type": "uint256"
            },
            {
              "internalType": "uint256",
              "name": "sharesAway",
              "type": "uint256"
            },
            {
              "internalType": "uint256",
              "name": "sharesDraw",
              "type": "uint256"
            },
            {
              "internalType": "bool",
              "name": "claimed",
              "type": "bool"
            }
          ],
          "internalType": "struct PredictionMarket.Position",
          "name": "",
          "type": "tuple"
        }
      ],
      "stateMutability": "view",
      "type": "function"
    },
    {
      "inputs": [
        {
          "internalType": "int256[3]",
          "name": "currentShares",
          "type": "int256[3]"
        },
        {
          "internalType": "uint256",
          "name": "outcomeIdx",
          "type": "uint256"
        },
        {
          "internalType": "int256",
          "name": "quantity",
          "type": "int256"
        }
      ],
      "name": "lmsrCost",
      "outputs": [
        {
          "internalType": "uint256",
          "name": "cost",
          "type": "uint256"
        }
      ],
      "stateMutability": "view",
      "type": "function"
    },
    {
      "inputs": [
        {
          "internalType": "uint256",
          "name": "",
          "type": "uint256"
        }
      ],
      "name": "marketIds",
      "outputs": [
        {
          "internalType": "uint256",
          "name": "",
          "type": "uint256"
        }
      ],
      "stateMutability": "view",
      "type": "function"
    },
    {
      "inputs": [
        {
          "internalType": "uint256",
          "name": "",
          "type": "uint256"
        }
      ],
      "name": "markets",
      "outputs": [
        {
          "internalType": "uint256",
          "name": "id",
          "type": "uint256"
        },
        {
          "internalType": "string",
          "name": "homeTeam",
          "type": "string"
        },
        {
          "internalType": "string",
          "name": "awayTeam",
          "type": "string"
        },
        {
          "internalType": "string",
          "name": "league",
          "type": "string"
        },
        {
          "internalType": "uint256",
          "name": "matchTimestamp",
          "type": "uint256"
        },
        {
          "internalType": "uint256",
          "name": "closingTime",
          "type": "uint256"
        },
        {
          "internalType": "bool",
          "name": "resolved",
          "type": "bool"
        },
        {
          "internalType": "bool",
          "name": "cancelled",
          "type": "bool"
        },
        {
          "internalType": "enum PredictionMarket.Outcome",
          "name": "winner",
          "type": "uint8"
        },
        {
          "internalType": "uint256",
          "name": "totalVolume",
          "type": "uint256"
        },
        {
          "internalType": "uint256",
          "name": "feesCollected",
          "type": "uint256"
        },
        {
          "internalType": "string",
          "name": "externalMatchId",
          "type": "string"
        }
      ],
      "stateMutability": "view",
      "type": "function"
    },
    {
      "inputs": [],
      "name": "nextMarketId",
      "outputs": [
        {
          "internalType": "uint256",
          "name": "",
          "type": "uint256"
        }
      ],
      "stateMutability": "view",
      "type": "function"
    },
    {
      "inputs": [],
      "name": "owner",
      "outputs": [
        {
          "internalType": "address",
          "name": "",
          "type": "address"
        }
      ],
      "stateMutability": "view",
      "type": "function"
    },
    {
      "inputs": [
        {
          "internalType": "uint256",
          "name": "",
          "type": "uint256"
        },
        {
          "internalType": "address",
          "name": "",
          "type": "address"
        }
      ],
      "name": "positions",
      "outputs": [
        {
          "internalType": "uint256",
          "name": "sharesHome",
          "type": "uint256"
        },
        {
          "internalType": "uint256",
          "name": "sharesAway",
          "type": "uint256"
        },
        {
          "internalType": "uint256",
          "name": "sharesDraw",
          "type": "uint256"
        },
        {
          "internalType": "bool",
          "name": "claimed",
          "type": "bool"
        }
      ],
      "stateMutability": "view",
      "type": "function"
    },
    {
      "inputs": [
        {
          "internalType": "uint256",
          "name": "marketId",
          "type": "uint256"
        },
        {
          "internalType": "enum PredictionMarket.Outcome",
          "name": "outcome",
          "type": "uint8"
        },
        {
          "internalType": "uint256",
          "name": "shares",
          "type": "uint256"
        }
      ],
      "name": "previewBet",
      "outputs": [
        {
          "internalType": "uint256",
          "name": "cost",
          "type": "uint256"
        },
        {
          "internalType": "uint256",
          "name": "fee",
          "type": "uint256"
        },
        {
          "internalType": "uint256",
          "name": "total",
          "type": "uint256"
        }
      ],
      "stateMutability": "view",
      "type": "function"
    },
    {
      "inputs": [],
      "name": "renounceOwnership",
      "outputs": [],
      "stateMutability": "nonpayable",
      "type": "function"
    },
    {
      "inputs": [
        {
          "internalType": "uint256",
          "name": "marketId",
          "type": "uint256"
        },
        {
          "internalType": "enum PredictionMarket.Outcome",
          "name": "winner",
          "type": "uint8"
        }
      ],
      "name": "resolveMarket",
      "outputs": [],
      "stateMutability": "nonpayable",
      "type": "function"
    },
    {
      "inputs": [
        {
          "internalType": "uint256",
          "name": "marketId",
          "type": "uint256"
        },
        {
          "internalType": "enum PredictionMarket.Outcome",
          "name": "outcome",
          "type": "uint8"
        },
        {
          "internalType": "uint256",
          "name": "shares",
          "type": "uint256"
        },
        {
          "internalType": "uint256",
          "name": "minProceeds",
          "type": "uint256"
        }
      ],
      "name": "sellShares",
      "outputs": [],
      "stateMutability": "nonpayable",
      "type": "function"
    },
    {
      "inputs": [
        {
          "internalType": "address",
          "name": "newRecipient",
          "type": "address"
        }
      ],
      "name": "setFeeRecipient",
      "outputs": [],
      "stateMutability": "nonpayable",
      "type": "function"
    },
    {
      "inputs": [],
      "name": "totalFeesEarned",
      "outputs": [
        {
          "internalType": "uint256",
          "name": "",
          "type": "uint256"
        }
      ],
      "stateMutability": "view",
      "type": "function"
    },
    {
      "inputs": [
        {
          "internalType": "address",
          "name": "newOwner",
          "type": "address"
        }
      ],
      "name": "transferOwnership",
      "outputs": [],
      "stateMutability": "nonpayable",
      "type": "function"
    },
    {
      "inputs": [],
      "name": "usdc",
      "outputs": [
        {
          "internalType": "contract IERC20",
          "name": "",
          "type": "address"
        }
      ],
      "stateMutability": "view",
      "type": "function"
    },
    {
      "inputs": [],
      "name": "withdrawFees",
      "outputs": [],
      "stateMutability": "nonpayable",
      "type": "function"
    }
  ],
  "bytecode": "0x60a0346200019b57601f62002bab38819003918201601f19168301916001600160401b03831184841017620001a05780849260409485528339810103126200019b576200005a60206200005283620001b6565b9201620001b6565b6001600081815581546001600160a01b0319808216339081179094556040519590946001600160a01b0394909385938416907f8be0079c531659141344cd1fd0a4f28419497f9722a3daafe3b4186f6b6457e09080a360016002551693841562000159575016918215620001085760805260065416176006556040516129df9081620001cc82396080518181816102e6015281816114da0152818161176a015281816119140152611a980152f35b60405162461bcd60e51b8152602060048201526024808201527f50726564696374696f6e4d61726b65743a207a65726f206665652072656369706044820152631a595b9d60e21b6064820152608490fd5b62461bcd60e51b815260206004820152601b60248201527f50726564696374696f6e4d61726b65743a207a65726f207573646300000000006044820152606490fd5b600080fd5b634e487b7160e01b600052604160045260246000fd5b51906001600160a01b03821682036200019b5756fe6080604052600436101561001257600080fd5b60003560e01c8063126c416614611ae55780631ab9550a14611ac75780633e413bee14611a82578063406ef2ef14611a645780634690484014611a3b578063476343ee146118d65780634962db64146118b75780634ede707414611829578063590528a9146116205780636637e38c14611603578063677bd9ff14611416578063715018a6146113b9578063779a9683146113825780637c16cd9e146112ac57806389c0006714610c715780638da5cb5b14610c48578063b1283e7714610b41578063b85ed63614610a8b578063bf333f2c14610a6f578063d29f541d146109b8578063df55406e14610857578063e10a482f146107f1578063e684d71814610782578063e74b981b146106f0578063eb44fdd314610487578063f2fde38b146103be578063fd69f3c2146103a05763fe9650401461015057600080fd5b3461039b5761015e36611b21565b9061016a939293611feb565b61017383612568565b600485101561038557610187851515611e23565b610192821515611e79565b60001985019085821161036f57600781016101b684846101b184611ec5565b6123d9565b9060c882029282840460c8148315171561036f5761021f6101f786600b946101f26101e96127106102489a048099611f2b565b9b8c1115611f38565b611f90565b819291549061020b8a838360031b1c611fa0565b919060031b91821b91600019901b19161790565b9055600a8101610230888254611f2b565b90550161023e828254611f2b565b9055600754611f2b565b6007558360005260046020526040600020336000526020526040600020908015600014610345575061027b828254611f2b565b90555b6040516323b872dd60e01b6020820152336024820152306044820152606480820184905281529160a083016001600160401b0381118482101761032f577f1adacc4a1e9c312cf9252edbdea295e1e908db9608b290ad030a428c646fa25a9361030a916040527f0000000000000000000000000000000000000000000000000000000000000000612041565b61032561031685612482565b91604051958695339a87611fbc565b0390a36001600055005b634e487b7160e01b600052604160045260246000fd5b6001036103615760010161035a828254611f2b565b905561027e565b60020161035a828254611f2b565b634e487b7160e01b600052601160045260246000fd5b634e487b7160e01b600052602160045260246000fd5b600080fd5b3461039b57600036600319011261039b576020600554604051908152f35b3461039b57602036600319011261039b576103d7611d78565b6103df611d8e565b6001600160a01b0390811690811561043357600154826bffffffffffffffffffffffff60a01b821617600155167f8be0079c531659141344cd1fd0a4f28419497f9722a3daafe3b4186f6b6457e0600080a3005b60405162461bcd60e51b815260206004820152602660248201527f4f776e61626c653a206e6577206f776e657220697320746865207a65726f206160448201526564647265737360d01b6064820152608490fd5b3461039b57602036600319011261039b5760606101806040516104a981611c17565b60008152826020820152826040820152828082015260006080820152600060a0820152600060c0820152600060e082015260006101008201526040516104ee81611c33565b83368237610120820152600061014082015260006101608201520152600435600052600360205260406000206040519061052782611c17565b8054825261053760018201611c6f565b602083015261054860028201611c6f565b604083015261055960038201611c6f565b606083015260048101546080830152600581015460a0830152600681015460ff8116151560c084015260ff8160081c16151560e0840152600460ff8260101c161015610385576105e09160ff600c9260101c166101008501526105be60078201611ec5565b610120850152600a810154610140850152600b81015461016085015201611c6f565b6101808201526040518091602082528051602083015261064361062d61061760208401516101e06040870152610200860190611d15565b6040840151858203601f19016060870152611d15565b6060830151848203601f19016080860152611d15565b90608081015160a084015260a081015160c084015260c0810151151560e084015260e08101511515610100840152610685610100820151610120850190611d55565b610120810151600061014085015b600382106106d6575050506101408101516101a08401526101608101516101c08401526101800151828203601f19016101e08401526106d29190611d15565b0390f35b825181528695506020928301926001929092019101610693565b3461039b57602036600319011261039b57610709611d78565b610711611d8e565b6001600160a01b0316801561073d576bffffffffffffffffffffffff60a01b6006541617600655600080f35b60405162461bcd60e51b815260206004820152601e60248201527f50726564696374696f6e4d61726b65743a207a65726f206164647265737300006044820152606490fd5b3461039b57604036600319011261039b5761079b611d62565b600435600052600460205260406000209060018060a01b03166000526020526080604060002080549060018101549060ff6003600283015492015416916040519384526020840152604083015215156060820152f35b3461039b5760a036600319011261039b57366023121561039b5760405161081781611c33565b80606436811161039b576020926004925b828410610848575061084092506084359135906123d9565b604051908152f35b83358152928401928401610828565b3461039b57604036600319011261039b57600435602435600481101561039b5761087f611d8e565b81600052600360205260406000209061089a82541515612283565b600682019081546108ae60ff8216156122da565b6108be60ff8260081c1615612331565b60048401544210610967578115610923577f661ce16e44a34377fc37c19874f4b1bec6e84b072cf8d318838fe17c20c58e44936040936001600a9362ff00008660101b169062ff00ff191617179055015461091b83518093611d55565b6020820152a2005b606460405162461bcd60e51b815260206004820152602060248201527f50726564696374696f6e4d61726b65743a20696e76616c69642077696e6e65726044820152fd5b60405162461bcd60e51b815260206004820152602360248201527f50726564696374696f6e4d61726b65743a206d61746368206e6f7420737461726044820152621d195960ea1b6064820152608490fd5b3461039b57604036600319011261039b576109d1611d62565b600060606040516109e181611bfc565b8281528260208201528260408201520152600435600052600460205260406000209060018060a01b031660005260205260806040600020604051610a2481611bfc565b815491828252600181015460208301908152606060ff600360028501549460408701958652015416930192151583526040519384525160208401525160408301525115156060820152f35b3461039b57600036600319011261039b57602060405160c88152f35b3461039b57600036600319011261039b57604051806005548083526020809301809160056000527f036b6384b5eca791c62761152d0c79bb0604c104a5fb6f4eb0703f3154bb3db09060005b86828210610b2d578686610aed82880383611c4e565b604051928392818401908285525180915260408401929160005b828110610b1657505050500390f35b835185528695509381019392810192600101610b07565b835485529093019260019283019201610ad7565b3461039b57602036600319011261039b576004356000526003602052604060002080546106d2610b7360018401611c6f565b92610b8060028201611c6f565b610b8c60038301611c6f565b91600481015492610c2e6005830154600684015490610bf9600a86015494610beb610bbe600c600b8a01549901611c6f565b98610bdd6040519e8f9e8f908152610180908160208201520190611d15565b8d810360408f015290611d15565b908b820360608d0152611d15565b9660808a015260a089015260ff8116151560c089015260ff8160081c16151560e089015260ff61010089019160101c16611d55565b610120860152610140850152838203610160850152611d15565b3461039b57600036600319011261039b576001546040516001600160a01b039091168152602090f35b3461039b5760a036600319011261039b576004356001600160401b03811161039b57610ca1903690600401611b95565b906024356001600160401b03811161039b57610cc1903690600401611b95565b6044929192356001600160401b03811161039b57610ce3903690600401611b95565b9290946084356001600160401b03811161039b57610d05903690600401611b95565b9590610d0f611d8e565b4260643511156112675760025496610d2688611de6565b60025587600052600360205260406000208881556001600160401b03851161032f57610d556001820154611bc2565b601f8111611220575b50846000601f82116001146111b2576000916111a7575b508560011b906000198760031b1c19161760018201555b6001600160401b03871161032f57610da76002820154611bc2565b601f8111611160575b50866000601f82116001146110f2576000916110e7575b508760011b906000198960031b1c19161760028201555b6001600160401b03881161032f57610df96003820154611bc2565b601f81116110a0575b50876000601f821160011461103057600091611025575b508860011b906000198a60031b1c19161760038201555b6064356004820181905561012b19810190811161036f5760058201556001600160401b03821161032f57610e67600c820154611bc2565b601f8111610fde575b50600082601f8111600114610f7157600c91600091610f66575b508360011b906000198560031b1c1916179101555b600554956801000000000000000087101561032f576020998998610f37610f5b96610f45948c610f10610ef98e7fc57500193187a5fd2b78d41186c264ddbf85abc40dc877b5f8732f2636fe93319f600101600555611b48565b819391549060031b91821b91600019901b19161790565b9055610f296040519b8c9b60a08d5260a08d0191611e02565b918a830360208c0152611e02565b918783036040890152611e02565b9160643560608601528483036080860152611e02565b0390a2604051908152f35b90508401358c610e8a565b50600c820160005260206000209060005b601f1985168110610fc6575083601f19811610610fac575b5050600c600183811b01910155610e9f565b840135600019600385901b60f8161c191690558a80610f9a565b90916020600181928589013581550193019101610f82565b600c82016000526020600020601f840160051c81016020851061101e575b601f830160051c82018110611012575050610e70565b60008155600101610ffc565b5080610ffc565b90508a01358b610e19565b90506003820160005260206000209060005b8c601f198c16821061108857505089601f1981161061106e575b5050600188811b016003820155610e30565b8b013560001960038b901b60f8161c191690558a8061105c565b60018394602093948493013581550193019101611042565b600382016000526020600020601f8a0160051c810160208b106110e0575b601f830160051c820181106110d4575050610e02565b600081556001016110be565b50806110be565b90508401358b610dc7565b90506002820160005260206000209060005b601f198a168110611148575088601f1981161061112e575b5050600187811b016002820155610dde565b85013560001960038a901b60f8161c191690558a8061111c565b9091602060018192858a013581550193019101611104565b600282016000526020600020601f890160051c810160208a106111a0575b601f830160051c82018110611194575050610db0565b6000815560010161117e565b508061117e565b90508601358b610d75565b90506001820160005260206000209060005b601f1988168110611208575086601f198116106111ee575b5050600185811b016001820155610d8c565b870135600019600388901b60f8161c191690558a806111dc565b9091602060018192858c0135815501930191016111c4565b600182016000526020600020601f870160051c810160208810611260575b601f830160051c82018110611254575050610d5e565b6000815560010161123e565b508061123e565b60405162461bcd60e51b815260206004820152601f60248201527f50726564696374696f6e4d61726b65743a206d6174636820696e2070617374006044820152606490fd5b3461039b57602036600319011261039b576004356112c8611d8e565b806000526003602052600660406000206112e481541515612283565b0180546112f460ff8216156122da565b60ff8160081c166113315761ff0019166101001790557f2ca440fb7fca85d7f55d395a4abd94817330b83a62f3502efbb4770144e4ca97600080a2005b60405162461bcd60e51b815260206004820152602360248201527f50726564696374696f6e4d61726b65743a20616c72656164792063616e63656c6044820152621b195960ea1b6064820152608490fd5b3461039b57602036600319011261039b5760043560055481101561039b576113ab602091611b48565b90546040519160031b1c8152f35b3461039b57600036600319011261039b576113d2611d8e565b600180546001600160a01b031981169091556000906001600160a01b03167f8be0079c531659141344cd1fd0a4f28419497f9722a3daafe3b4186f6b6457e08280a3005b3461039b5760208060031936011261039b57600435611433611feb565b8060005260038252604060002061144c81541515612283565b60068101805460ff81169081156115f5575b50156115b0578260005260048452604060002033600052845260406000209060038201805460ff81166115615760ff191660011790555460081c60ff1615611552576114a991612913565b915b821561150e577f5380cf6fe903b40c6d5a9e0dfbca2f3a423f0a21520b4d5947ed5169bdba946d906114fe84337f0000000000000000000000000000000000000000000000000000000000000000612245565b6040519384523393a36001600055005b6064906040519062461bcd60e51b82526004820152601d60248201527f50726564696374696f6e4d61726b65743a206e6f2077696e6e696e67730000006044820152fd5b61155b9161287d565b916114ab565b60405162461bcd60e51b815260048101889052602160248201527f50726564696374696f6e4d61726b65743a20616c726561647920636c61696d656044820152601960fa1b6064820152608490fd5b60405162461bcd60e51b815260048101859052601d60248201527f50726564696374696f6e4d61726b65743a206e6f7420736574746c65640000006044820152606490fd5b60ff915060081c168561145e565b3461039b57600036600319011261039b5760206040516127108152f35b3461039b5761162e36611b21565b611639939293611feb565b61164283612568565b91600485101561038557611657851515611e23565b611662811515611e79565b600019850185811161036f5784600052600460205260406000203360005260205260406000209080158060001461180b578383545b106117b857600786016116b66116ac86612234565b846101b184611ec5565b9060c8820282810460c8148315171561036f576116e9916101f26116e06127108894048096611df5565b998a1015611f38565b8192915498898260031b1c938885039460008a1281871281169187139015161761036f5761023061174c95600b947f8fdddc588076c398f58592a85002b527737ead18984b402d0bafb16a07ac96cd9d9060031b91821b91600019901b19161790565b6007551561178e5750611760828254611df5565b90555b61030a82337f0000000000000000000000000000000000000000000000000000000000000000612245565b6001036117aa576001016117a3828254611df5565b9055611763565b6002016117a3828254611df5565b60405162461bcd60e51b815260206004820152602560248201527f50726564696374696f6e4d61726b65743a20696e73756666696369656e742073604482015264686172657360d81b6064820152608490fd5b6001820361181e57836001840154611697565b836002840154611697565b3461039b57606036600319011261039b57602435600481101561039b5760043560005260036020526040600020600019820191821161036f57611875916101b160076044359301611ec5565b60c8810281810460c8148215171561036f576127109004906106d261189a8383611f2b565b604051938493846040919493926060820195825260208201520152565b3461039b57600036600319011261039b5760206040516305f5e1008152f35b3461039b57600036600319011261039b576006546001600160a01b0390811690338290036119ea576040516370a0823160e01b8152306004820152917f0000000000000000000000000000000000000000000000000000000000000000906020846024818686165afa9384156119de576000946119a7575b50916119916020927f78473f3f373f7673597f4f0fa5873cb4d375fea6d4339ad6b56dbd411513cb3f9460075496600060075580881160001461199f5791612245565b6006541692604051908152a2005b508691612245565b929093506020833d82116119d6575b816119c360209383611c4e565b8101031261039b5791519261199161194e565b3d91506119b6565b6040513d6000823e3d90fd5b60405162461bcd60e51b815260206004820152602360248201527f50726564696374696f6e4d61726b65743a206e6f742066656520726563697069604482015262195b9d60ea1b6064820152608490fd5b3461039b57600036600319011261039b576006546040516001600160a01b039091168152602090f35b3461039b57600036600319011261039b576020600254604051908152f35b3461039b57600036600319011261039b576040517f00000000000000000000000000000000000000000000000000000000000000006001600160a01b03168152602090f35b3461039b57600036600319011261039b576020600754604051908152f35b3461039b57602036600319011261039b576106d2611b04600435612482565b604080519384526020840192909252908201529081906060820190565b608090600319011261039b5760043590602435600481101561039b57906044359060643590565b600554811015611b7f5760056000527f036b6384b5eca791c62761152d0c79bb0604c104a5fb6f4eb0703f3154bb3db00190600090565b634e487b7160e01b600052603260045260246000fd5b9181601f8401121561039b578235916001600160401b03831161039b576020838186019501011161039b57565b90600182811c92168015611bf2575b6020831014611bdc57565b634e487b7160e01b600052602260045260246000fd5b91607f1691611bd1565b608081019081106001600160401b0382111761032f57604052565b6101a081019081106001600160401b0382111761032f57604052565b606081019081106001600160401b0382111761032f57604052565b90601f801991011681019081106001600160401b0382111761032f57604052565b9060405191826000825492611c8384611bc2565b908184526001948581169081600014611cf25750600114611caf575b5050611cad92500383611c4e565b565b9093915060005260209081600020936000915b818310611cda575050611cad93508201013880611c9f565b85548884018501529485019487945091830191611cc2565b915050611cad94506020925060ff191682840152151560051b8201013880611c9f565b919082519283825260005b848110611d41575050826000602080949584010152601f8019910116010190565b602081830181015184830182015201611d20565b9060048210156103855752565b602435906001600160a01b038216820361039b57565b600435906001600160a01b038216820361039b57565b6001546001600160a01b03163303611da257565b606460405162461bcd60e51b815260206004820152602060248201527f4f776e61626c653a2063616c6c6572206973206e6f7420746865206f776e65726044820152fd5b600019811461036f5760010190565b9190820391821161036f57565b908060209392818452848401376000828201840152601f01601f1916010190565b15611e2a57565b60405162461bcd60e51b815260206004820152602160248201527f50726564696374696f6e4d61726b65743a20696e76616c6964206f7574636f6d6044820152606560f81b6064820152608490fd5b15611e8057565b60405162461bcd60e51b815260206004820152601d60248201527f50726564696374696f6e4d61726b65743a207a65726f207368617265730000006044820152606490fd5b60405191906000835b60038210611ee257505050611cad82611c33565b6001602081928554815201930191019091611ece565b8181029291811591840414171561036f57565b8115611f15570490565b634e487b7160e01b600052601260045260246000fd5b9190820180921161036f57565b15611f3f57565b60405162461bcd60e51b815260206004820152602360248201527f50726564696374696f6e4d61726b65743a20736c69707061676520657863656560448201526219195960ea1b6064820152608490fd5b6003821015611b7f570190600090565b9190916000838201938412911290801582169115161761036f57565b9260a0949197969592611fd38560c081019a611d55565b60208501526040840152606083015260808201520152565b600260005414611ffc576002600055565b60405162461bcd60e51b815260206004820152601f60248201527f5265656e7472616e637947756172643a207265656e7472616e742063616c6c006044820152606490fd5b60018060a01b031690604051604081016001600160401b03908281108282111761032f576040526020938483527f5361666545524332303a206c6f772d6c6576656c2063616c6c206661696c6564858401526000808587829751910182855af1903d1561218c573d92831161217857906120db939291604051926120ce88601f19601f8401160185611c4e565b83523d868885013e612197565b80519182159184831561214d575b5050509050156120f65750565b6084906040519062461bcd60e51b82526004820152602a60248201527f5361666545524332303a204552433230206f7065726174696f6e20646964206e6044820152691bdd081cdd58d8d9595960b21b6064820152fd5b919381809450010312612174578201519081151582036121715750803880846120e9565b80fd5b5080fd5b634e487b7160e01b85526041600452602485fd5b906120db9392506060915b919290156121f957508151156121ab575090565b3b156121b45790565b60405162461bcd60e51b815260206004820152601d60248201527f416464726573733a2063616c6c20746f206e6f6e2d636f6e74726163740000006044820152606490fd5b82519091501561220c5750805190602001fd5b60405162461bcd60e51b815260206004820152908190612230906024830190611d15565b0390fd5b600160ff1b811461036f5760000390565b60405163a9059cbb60e01b60208201526001600160a01b039092166024830152604480830193909352918152611cad9161227e82611bfc565b612041565b1561228a57565b60405162461bcd60e51b815260206004820152602260248201527f50726564696374696f6e4d61726b65743a206d61726b6574206e6f7420666f756044820152611b9960f21b6064820152608490fd5b156122e157565b60405162461bcd60e51b815260206004820152602260248201527f50726564696374696f6e4d61726b65743a20616c7265616479207265736f6c76604482015261195960f21b6064820152608490fd5b1561233857565b60405162461bcd60e51b815260206004820152601b60248201527f50726564696374696f6e4d61726b65743a2063616e63656c6c656400000000006044820152606490fd5b906003811015611b7f5760051b0190565b1561239557565b606460405162461bcd60e51b815260206004820152602060248201527f50726564696374696f6e4d61726b65743a204c4d535220756e646572666c6f776044820152fd5b919061245261244c600092604051906123f182611c33565b865182526020870180516020840152604088019081516040850152604051986124198a611c33565b51895251602089015251604088015261244661243f87612439848b61237d565b51611fa0565b918861237d565b526125f4565b936125f4565b91131561247257908161246a8261246f94101561238e565b611df5565b90565b8161246a8261246f94101561238e565b60009081526003602052604081209161249e600784015461264d565b916124b960096124b1600887015461264d565b95015461264d565b926124cd846124c88784611f2b565b611f2b565b91821561255457620f4240918281029080820484149015171561254057836124f491611f0b565b9582810290808204841490151715612540578361251091611f0b565b9482810292818404149015171561252c57509061246f91611f0b565b634e487b7160e01b81526011600452602490fd5b634e487b7160e01b82526011600452602482fd5b505050915050620516159081906205161690565b600052600360205260406000209061258282541515612283565b6125a260ff6006840154612598828216156122da565b60081c1615612331565b60058201544210156125b057565b606460405162461bcd60e51b815260206004820152602060248201527f50726564696374696f6e4d61726b65743a2062657474696e6720636c6f7365646044820152fd5b61262961262e916124c8612608825161264d565b91612623604061261b602084015161264d565b92015161264d565b92611f2b565b6126ab565b6305f5e100908082029182040361036f57670de0b6b3a7640000900490565b670de0b6b3a76400009081810291818305149015171561036f576305f5e10061246f9105678ac7230489e800008082136126a3575b50678ac7230489e7ffff1980821261269b575b50612796565b905038612695565b905038612682565b8015612790576000905b671bc16d674ec8000081101561277d575b670de0b6b3a7640000811061275957670de0b6b3a763ffff19810190811161036f57806729a2241af62c000061272f612715671bc16d674ec8000061270e8561273697611ef8565b0484611df5565b92670de0b6b3a76400006127298280611ef8565b04611ef8565b0490611f2b565b67099e8db03256ce5d9182810292818404149015171561036f5761246f91611f2b565b8060011b908082046002149015171561036f5790801561036f5760001901906126c6565b61278a9060011c91611de6565b906126b5565b50600090565b801561287057600080821291821561286a576127b190612234565b915b670de0b6b3a764000092600190845b600c831115612805575050506127d6575090565b81156127f157506ec097ce7bc90715b34b9f10000000000490565b634e487b7160e01b81526012600452602490fd5b8161281291969396611ef8565b670de0b6b3a7640000860290868204670de0b6b3a76400001487151715612856576128436128509261284a92611f0b565b8094611f2b565b95611de6565b916127c2565b634e487b7160e01b86526011600452602486fd5b916127b3565b50670de0b6b3a764000090565b60ff600682015460101c1691600483101561038557600019830192831161036f57826128f75754915b82156128ef576128b99060078301611f90565b90549060031b1c9060008213156128ef5761246f926128e582600b600a6128ea95015491015490611df5565b611ef8565b611f0b565b505050600090565b600183036129095760010154916128a6565b60020154916128a6565b90612959612943600784015460008082136000146129a257505b600885015460008082131561299a575090611fa0565b600984015460008082131561299a575090611fa0565b9081156128ef5761246f926128e56129898360026129806128ea9654600184015490611f2b565b91015490611f2b565b91600b600a82015491015490611df5565b905090611fa0565b905061292d56fea26469706673582212208ef49a5ba66f2ca1e2e1475a462287a9741e93aba94c1e6042589d9f950c609c64736f6c63430008140033",
  "linkReferences": {},
  "deployedLinkReferences": {}
}